:020000040800F2
:1000000000000220010A0008FD0900081560000830
:10001000FD090008FD090008FD09000800000000B6
:10002000000000000000000000000000FD090008C2
:10003000FD09000800000000FD090008995F0008A4
:10004000FD090008FD090008FD090008FD09000878
:10005000FD090008FD090008FD090008FD09000868
:10006000FD090008FD090008FD090008A15B000862
:10007000AD5B00081D490008B95B0008C55B0008BE
:10008000D50C0108CD500008FD090008FD09000845
:10009000FD090008FD090008FD090008FD09000828
:1000A000FD090008FD090008FD090008FD09000818
:1000B000ED000108F90001080501010801510008DF
:1000C000FD0900080D510008FD0900085DF9000850
:1000D00069F90008090B0108350B0108690B0108D3
:1000E000FD090008FD09000800000000FD090008E6
:1000F000FD090008FD090008FD090008FD090008C8
:10010000FD090008FD0900081101010875F9000842
:100110009D0B0108D10B0108FD090008FD0900082D
:10012000FD090008FD09000899F90008CDF900084B
:10013000090D0108FD090008FD090008FD09000876
:1001400000000000000000000000000000000000AF
:10015000FD090008FD090008FD090008050C01085B
:1001600019510008FD090008A95F0008CD5F0008CB
:10017000FD090008F15F0008FD090008FD090008FD
:10018000FD090008FD090008390C01086D0C010883
:1001900081F900088DF90008FD090008FD09000833
:1001A000FD090008FD090008FD090008FD09000817
:1001B000C1580008FD090008FD090008FD090008F4
:1001C000FD090008FD09000819F1000825F10008E3
:1001D000FD09000831F10008FD090008FD090008CB
:1001E000FD090008FD090008FD090008FD090008D7
:1001F000FD090008FD090008FD090008FD090008C7
:10020000FD090008FD090008FD090008FD090008B6
:10021000FD090008FD090008FD090008FD090008A6
:10022000FD090008FD090008FD09000800000000A4
:10023000FD090008FD09000800000000FD09000894
:10024000FD090008FD090008FD090008FD09000876
:10025000FD090008FD090008FD090008FD09000866
:10026000FD090008FD090008FD090008FD09000856
:10027000FD090008FD090008A10C010800000000AC
:10028000FD090008FD090008FD0900080000000044
:0802900000000000FD09000858
:1002A00010B5054C237833B9044B13B10448AFF3B0
:1002B00000800123237010BD5006002400000000C0
:1002C000B083010808B5034B1BB103490348AFF3E2
:1002D000008008BD0000000054060024B08301081F
:1002E00001F0FF01102A2BDB10F0070F08D010F8E7
:1002F000013B013A8B422DD010F0070F42B3F6D1EB
:10030000F0B441EA012141EA014122F007047FF003
:1003100000070023F0E80256083C85EA010586EA5A
:10032000010685FA47F5A3FA87F586FA47F6A5FA96
:1003300087F68EB9EED1F0BC01F0FF0102F00702A2
:1003400032B110F8013B013A83EA010313B1F8D14D
:100350000020704701387047002D06BF354603382E
:10036000073815F0010F07D1013015F4807F02BF67
:10037000013015F4C03F0130F0BC0138704700BFB8
:1003800081F0004102E000BF83F0004330B54FEA46
:1003900041044FEA430594EA050F08BF90EA020FB3
:1003A0001FBF54EA000C55EA020C7FEA645C7FEA46
:1003B000655C00F0E2804FEA5454D4EB5555B8BF69
:1003C0006D420CDD2C4480EA020281EA030382EADA
:1003D000000083EA010180EA020281EA0303362D6C
:1003E00088BF30BD11F0004F4FEA01314FF4801C3F
:1003F0004CEA113102D0404261EB410113F0004F51
:100400004FEA03334CEA133302D0524263EB430307
:1004100094EA050F00F0A780A4F10104D5F1200EA5
:100420000DDB02FA0EFC22FA05F2801841F1000100
:1004300003FA0EF2801843FA05F359410EE0A5F1D4
:1004400020050EF1200E012A03FA0EFC28BF4CF005
:10045000020C43FA05F3C01851EBE37101F00045BB
:1004600007D54FF0000EDCF1000C7EEB00006EEBC8
:100470000101B1F5801F1BD3B1F5001F0CD3490852
:100480005FEA30004FEA3C0C04F101044FEA4452A9
:1004900012F5800F80F09A80BCF1004F08BF5FEA30
:1004A000500C50F1000041EB045141EA050130BD10
:1004B0005FEA4C0C404141EB0101013C28BFB1F522
:1004C000801FE9D291F0000F04BF01460020B1FA6D
:1004D00081F308BF2033A3F10B03B3F120020CDA40
:1004E0000C3208DD02F1140CC2F10C0201FA0CF01E
:1004F00021FA02F10CE002F11402D8BFC2F1200C83
:1005000001FA02F120FA0CFCDCBF41EA0C01904038
:10051000E41AA2BF01EB0451294330BD6FEA040481
:100520001F3C1CDA0C340EDC04F11404C4F120026C
:1005300020FA04F001FA02F340EA030021FA04F37E
:1005400045EA030130BDC4F10C04C4F1200220FAD5
:1005500002F001FA04F340EA0300294630BD21FA13
:1005600004F0294630BD94F0000F83F4801306BFD9
:1005700081F480110134013D4EE77FEA645C18BFCD
:100580007FEA655C29D094EA050F08BF90EA020F64
:1005900005D054EA000C04BF1946104630BD91EA5C
:1005A000030F1EBF0021002030BD5FEA545C05D15F
:1005B0004000494128BF41F0004130BD14F580049E
:1005C0003CBF01F5801130BD01F0004545F0FE4112
:1005D00041F470014FF0000030BD7FEA645C1ABF47
:1005E000194610467FEA655C1CBF0B46024650EA7E
:1005F000013406BF52EA033591EA030F41F40021AA
:1006000030BD00BF90F0000F04BF0021704730B52F
:100610004FF4806404F132044FF000054FF0000104
:1006200050E700BF90F0000F04BF0021704730B5C5
:100630004FF4806404F1320410F0004548BF40429A
:100640004FF000013EE700BF42004FEAE2014FEAEF
:1006500031014FEA02701FBF12F07F4393F07F4FCA
:1006600081F06051704732F07F4208BF704793F0CD
:100670007F4F04BF41F40021704730B54FF46074E0
:1006800001F0004521F000411CE700BF50EA0102E3
:1006900008BF704730B54FF000050AE050EA01028C
:1006A00008BF704730B511F0004502D5404261EBFC
:1006B00041014FF4806404F132045FEA915C3FF43D
:1006C000D8AE4FF003025FEADC0C18BF03325FEADA
:1006D000DC0C18BF033202EBDC02C2F1200300FA8B
:1006E00003FC20FA02F001FA03FE40EA0E0021FAB0
:1006F00002F11444BDE600BF53B94AB9002908BF4E
:1007000000281CBF4FF0FF314FF0FF3000F074B9EC
:10071000ADF1080C6DE904CE00F006F8DDF804E058
:10072000DDE9022304B070472DE9F047089D044637
:100730008E46002B4DD18A42944669D9B2FA82F294
:1007400052B101FA02F3C2F1200120FA01F10CFAD0
:1007500002FC41EA030E94404FEA1C48210CBEFB08
:10076000F8F61FFA8CF708FB16E341EA034306FB91
:1007700007F199420AD91CEB030306F1FF3080F020
:100780001F81994240F21C81023E63445B1AA4B26D
:10079000B3FBF8F008FB103344EA034400FB07F70F
:1007A000A7420AD91CEB040400F1FF3380F00A8150
:1007B000A74240F207816444023840EA0640E41B45
:1007C00000261DB1D4400023C5E900433146BDE8F1
:1007D000F0878B4209D9002D00F0EF800026C5E993
:1007E000000130463146BDE8F087B3FA83F6002EAB
:1007F0004AD18B4202D3824200F2F980841A61EB23
:10080000030301209E46002DE0D0C5E9004EDDE740
:1008100002B9FFDEB2FA82F2002A40F09280A1EB28
:100820000C014FEA1C471FFA8CFE0126200CB1FB7D
:10083000F7F307FB131140EA01410EFB03F0884276
:1008400008D91CEB010103F1FF3802D2884200F203
:10085000CB804346091AA4B2B1FBF7F007FB101195
:1008600044EA01440EFB00FEA64508D91CEB040433
:1008700000F1FF3102D2A64500F2BB800846A4EB8E
:100880000E0440EA03409CE7C6F12007B34022FA79
:1008900007FC4CEA030C20FA07F401FA06F31C43A8
:1008A000F9404FEA1C4900FA06F3B1FBF9F8200CB5
:1008B0001FFA8CFE09FB181140EA014108FB0EF0FB
:1008C000884202FA06F20BD91CEB010108F1FF3A4B
:1008D00080F08880884240F28580A8F10208614457
:1008E000091AA4B2B1FBF9F009FB101144EA014165
:1008F00000FB0EFE8E4508D91CEB010100F1FF3410
:100900006CD28E456AD90238614440EA0840A0FBA7
:100910000294A1EB0E01A142C846A64656D353D07D
:100920005DB1B3EB080261EB0E0101FA07F722FAA1
:1009300006F3F1401F43C5E9007100263146BDE8CA
:10094000F087C2F12003D8400CFA02FC21FA03F32D
:10095000914001434FEA1C471FFA8CFEB3FBF7F0AE
:1009600007FB10360B0C43EA064300FB0EF69E42D3
:1009700004FA02F408D91CEB030300F1FF382FD26C
:100980009E422DD9023863449B1B89B2B3FBF7F614
:1009900007FB163341EA034106FB0EF38B4208D9ED
:1009A0001CEB010106F1FF3816D28B4214D9023E2E
:1009B0006144C91A46EA004638E72E46284605E74C
:1009C0000646E3E61846F8E64B45A9D2B9EB02081D
:1009D00064EB0C0E0138A3E74646EAE7204694E7AD
:1009E0004046D1E7D0467BE7023B614432E73046E0
:1009F00009E76444023842E7704700BFFEE700BFE2
:100A00000B480C4A904203D0121A0B4914F04AFDCD
:100A10000A480B4A904203D0121A002114F050FDEC
:100A200005F04EFD14F012FD01F094FEFEE700BF4C
:100A3000000000244C060024E48301085006002432
:100A4000D4FD0024704700BF704700BF704700BF4F
:100A5000704700BF49424FF480621030C9B214F0B1
:100A60002FBD00BF704700BF4020704780207047F7
:100A7000704700BF2DE9F047B7480C4600211646E5
:100A80002DED048B03F0EEFE0121B348F0EE409A09
:100A900003F0E8FE0221B048F0EE408A03F0E2FEE7
:100AA0000321AD48B0EE408A03F0DCFEAB4BB0EE64
:100AB000409AD3ED007AF4EE697AF1EE10FA40F044
:100AC0003981DFF80893A64BD3ED007AF4EE687A0B
:100AD000F1EE10FA40F0CC80A24DA34BD3ED007A9A
:100AE000F4EE487AF1EE10FA40F0B0809F4FA04B40
:100AF000D3ED007AF4EE497AF1EE10FA40F0FA8084
:100B0000DFF8CC8297ED006AF3EE046A99ED008A73
:100B1000984FDFF8C092D7ED007AD9ED005A9FEDDB
:100B2000967AA5EE868A88FE268A88FE478AF4EEA3
:100B3000487AF1EE10FA43D1DFF89CA295ED007AE5
:100B4000DAED007AB4EE677AF1EE10FA3AD18B4D15
:100B50002B68002B49DB07EE903ADFED896AB2EE95
:100B6000087AF8EEE77A77EEE67AC7EE870A9FED25
:100B7000858A854FDFF864A2B0EE000A14F0B0F960
:100B800020EE088A3846B0EE480A87ED028A14F053
:100B900065F8D8ED007A87ED070ADFF8F48128EED2
:100BA000270A404688ED020A14F058F89AF80030F7
:100BB00088ED070A032B1ED8DFE803F01A87826E40
:100BC000DFF814A2B0EE480A704813F0E3FD95ED8B
:100BD000000A6E4813F042FE2B68684DCAF80030D8
:100BE0002B6887ED008A002BB5DAF8EE060ABEE71F
:100BF0000023C9F800302EB3013E0025DFF88CA198
:100C00007608D9F8003008345F487B60C8F80430B3
:100C100013F06AFEB0EE408A5D4813F065FEF6EE12
:100C2000007A5A4838EE000A20EE270A13F04EFDEB
:100C3000DAF83020B54205F1010544F8082C44F8F3
:100C4000042CDED1BDEC048BBDE8F087DFED516AEA
:100C50009FED517AF0EE667A444F83ED008AE8EE1C
:100C6000077AC7FEA67AC7FEC77AC7ED007A3EE7C5
:100C70009FED4A7AF7EE086A9FED496AF0EE477AEF
:100C8000384DC3ED008AE8EE867AC7FE877AC7FE44
:100C9000E67AC5ED007A20E7424813F0D9FBDFED94
:100CA000427AB4EEE70AF1EE10FA20D80023C9F830
:100CB000003000238AF800304FF0FF332B609AE7B2
:100CC0004FF07E53C9F8003095E7364813F0C0FB6B
:100CD000DFED367AB4EEE70AF1EE10FA07DB4FF0FB
:100CE0007E53C9F8003002238AF8003083E789ED8B
:100CF000000A80E79FED2E7AB0EE000A9FED2D6A84
:100D0000F0EE477ADFED2C0A83ED009ADFF8C08021
:100D10002A4BE9EE067ADFED2A6AC7FE877AC7FE1C
:100D2000E67AC7EEA00AC3ED007A14F0D9F888ED90
:100D3000000AE7E6F0EE690A9FED220AC3ED009A89
:100D400014F0CEF8DFED207ADFF8809020EE270A4D
:100D500089ED000AB7E600BF380B0024200000240C
:100D600010000024FC9C00241C000024D00A002455
:100D7000180000242400002400A08C463000002429
:100D800000008A420000DC43A49C0024D40A002412
:100D9000D09C00240000000000007A45CDCCCC3D62
:100DA0003333B33F980A00240AD7233CA4707D3F15
:100DB000000048C20000C8420000964478060024A3
:100DC0000000484200007A430000204274060024DC
:100DD0001400002470060024280000246C0600245F
:100DE00010B504464FF4826113F043FF204610BD56
:100DF000B9B30144F0B51546A5B002F10807441E89
:100E00004E1E01E0A6422AD014F8011F6A46384659
:100E100003F040F90028F5D0D5F8A8C09022694623
:100E2000D5E92B03C31A00F1010E00EBC00048BF47
:100E300063440CF1FF3C9C45E4D0D5F8A430C5F8E0
:100E4000ACE003EB001014F02DFBD5E92A2393420C
:100E5000A3EB020328BFC5F8AC30A642D4D125B01D
:100E6000F0BD70472DE9F04F4FF0B00885B0054652
:100E700000F1080700F18F0600F28F494FF47A7BEA
:100E80004FF0000A297B022303AA3846CDF800B0B0
:100E9000A6F180048DF80CA08DF80D8004F0D8F92F
:100EA000297B022303AA3846CDF800B08DF80CA0A8
:100EB0008DF80DA004F0CCF94FF0100C297B022323
:100EC00003AA3846CDF800B08DF80CA08DF80DC0FF
:100ED00004F0BEF94FF47A7014F801CF4FF0400ED1
:100EE000297B0223009003AA38468DF80CE08DF888
:100EF0000DC004F0ADF9B442ECD104F1800608F164
:100F000001084E455FFA88F8B8D105B0BDE8F08F0A
:100F10002DE9F04F85B0A1F1200504AC9DF83870A3
:100F2000009104E90C00EBB25E2B00F2958003689F
:100F300080465D4ADB689DF8084093429DF8096051
:100F400040F094808020B8F804302344834200F3BA
:100F50008380D8F80030554A9B68934240F08880DF
:100F60004020B8F8062093190192834274DC002EC9
:100F700000F0898006FB05F56FF00040039B964664
:100F800028442E44B8F804A003EB4000023B03EBD6
:100F9000460B30F8026FBCB30EF007034FF0010CA4
:100FA0004FEADE0251460CFA03FC0AF110034FFA35
:100FB0008CFC03EBC21200236FEA0C0942440EE0E2
:100FC0007F2907D8BEF13F0F04D815789FB14CEAAE
:100FD000050515700133013201319C4214D006FA27
:100FE00003F52D04ECD47F29F4D8BEF13F0FF1D8DE
:100FF0001578002FEBD0013309EA050501320131E4
:101000009C4202F8015CEAD158450EF1010EC0D1B4
:10101000D8F8003054442449DA68A4B28A422DD169
:10102000802084421CD29B68204AA8F80440934246
:1010300021D14020019B834207D3D8F800301B4ABE
:101040009B68934229D13F230193DDE90003A8F86F
:10105000063005B0BDE8F08F002005B0BDE8F08F88
:10106000DA6811498A4211D17F24DCE798476AE7A0
:101070004046984775E740469847DBE7404690472B
:10108000D8F80030CDE7B8F804A0C1E74046904753
:101090000138D8F8003084B2C5E740469847013897
:1010A00083B20193D1E700BF6D0A0008690A000806
:1010B0007F291ED83F2A1CD86BB1D3084FF0010CF2
:1010C00002F0070201EBC3130CFA02F2C1180B7C09
:1010D0001A430A747047D3084FF0010C02F007025C
:1010E00001EBC3130CFA02FCC1180A7C22EA0C02C1
:1010F0000A7470472DE9F04F83B05C1A0C9E002CE7
:101100009DF83490A6EB0208B8BF6442B8F1000F16
:10111000B8BFC8F100088B428CBF4FF0010A4FF0F6
:10112000FF3A9642A4EB080C51D84FF0FF357F2BC5
:10113000019512D83F2E10D8F50806F0070E0127AA
:1011400003EBC5150544B9F1000F47D007FA0EF7B8
:1011500095F810E047EA0E072F74964201D18B42B2
:1011600029D0C8F100077F2914D83F2A12D8D50802
:1011700002F0070B4FF0010E01EBC5150544B9F164
:10118000000F1BD00EFA0BFE95F810B04EEA0B0EB6
:1011900085F810E0B7EB4C0F4FEA4C0502DAACEBE8
:1011A000080C5144AC4202DD019DA4442A449942FA
:1011B000D9D19642D7D103B0BDE8F08F0EFA0BFB20
:1011C00095F810E02EEA0B0E85F810E0E2E7012515
:1011D0007F2B0195C5D83F2EAED9C2E707FA0EFE88
:1011E0002F7C964227EA0E072F74B8D0B9E700BFCC
:1011F0002DE9F04F2DED068B83B01F4680460D463E
:101200009DF8503016460193139B002BC0F22182AB
:10121000129A134406EE103ADDED127AB8EEC66B60
:101220009FEDCD4BB8EEE77B9FEDCD5B27EE047BCA
:1012300026EE046B87EE050B86EE05ABF7EEC08B52
:10124000B0EE680A13F01CFD07EE907AB7EECAAB59
:10125000F8EE679AB0EE408AB0EE680A13F0D4FF59
:1012600060EE698AB0EE4A0A13F00AFDB0EE409AC9
:10127000B0EE4A0A13F0C8FF20EE690A29EE888A08
:1012800029EE899A70EE687AF0EE006A39EE487AB3
:1012900067EEA77AE7EE077AF4EEE67AF1EE10FA57
:1012A00006D5139BB42B40F396804FF0010901E063
:1012B0004FF00009012478424FF0000C0095E31B29
:1012C000214627462246A340B9F1000F6AD1424287
:1012D00006EE90CACCF1000107EE102AB8EEE66ADD
:1012E00007EE901A06EE900AB8EEC77A139A66EEE9
:1012F000084AF8EEE77AB42A27EE284AF8EEE66ABA
:1013000067EE885A74EEC43A26EEA85A26EE096AA9
:1013100066EE806A67EE897A27EE007AF5EEC03ACB
:1013200040F3F280F1EE10FA00F17F8176EE473A59
:1013300074EEC54AF5EEC03AF1EE10FAF5EEC04A89
:10134000CCBF01220022F1EE10FA00F1778136EED7
:10135000666A35EEC55AB5EEC06AF1EE10FAB5EE22
:10136000C05ACCBF01210021F1EE10FA00F16F81CB
:1013700077EEE66AF5EEC06AF1EE10FACCBF01270F
:10138000002775EEC45AF5EEC05AF1EE10FA00F1DE
:10139000478177EEC77AF5EEC07AF1EE10FACCBF4E
:1013A00001240024002A40F08A80002964D1BFB9BA
:1013B000C4BB9C4558DB0CF1010C03EB4C0E1CEB41
:1013C000000F0EF1010E00F0C08098424FDB734613
:1013D00000287FF779AF03B0BDEC068BBDE8F08F36
:1013E000009DA6EB0C0E00EB050ABAF17F0FDFD8CB
:1013F000BEF13F0FDCD84FEADE0B019D0AEBCB1AA2
:10140000002D00F0B1800EF0070BC2444FF0010E2A
:101410000EFA0BFE9AF810B04EEA0B0E8AF810E0A6
:10142000002CC6D0009DA6EB0C0EA5EB000ABAF16D
:101430007F0FBED8BEF13F0FBBD84FEADE0B019D38
:101440000AEBCB1A002D00F0AE800EF0070BC24461
:101450004FF0010E9C450EFA0BFE9AF810B04EEAC2
:101460000B0E8AF810E0A6DA98429E46AFDA0130F9
:101470000EEB40030133ABE7009D0CEB060E00EBD7
:10148000050ABAF17F0F92D8BEF13F0F8FD84FEA0D
:10149000DE0B019D0AEBCB1A002D73D00EF0070B6B
:1014A000C2444FF0010E0EFA0BFE9AF810B04EEA4D
:1014B0000B0E8AF810E0002F3FF47AAF90E7009D02
:1014C0000CEB060EA5EB000ABAF17F0F3FF66DAFED
:1014D000BEF13F0F3FF669AF4FEADE0B019D0AEB0D
:1014E000CB1A002D6DD00EF0070BC2444FF0010E49
:1014F0000EFA0BFE9AF810B04EEA0B0E8AF810E0C6
:1015000000293FF454AFB7E7F1EE10FA7ED44A4613
:1015100074EEC54AF5EEC04AF1EE10FA6CD4002123
:1015200035EEC55AB5EEC05AF1EE10FA5AD400277E
:1015300075EEC45AF5EEC05AF1EE10FA3FF529AF38
:101540000024002A3FF431AFB9E798428FDB002333
:101550003BE700BFAFF300807A008BFCFA21094023
:101560000000000000806640C2444FF0010B0EF006
:10157000070E0BFA0EFE9AF810B02BEA0E0E8AF840
:1015800010E015E7C2444FF0010B0EF0070E0BFA06
:101590000EFE9AF810B02BEA0E0E8AF810E0002F1B
:1015A0003FF406AF1CE7C2444FF0010B0EF0070EEC
:1015B0000BFA0EFE9AF810B02BEA0E0E8AF810E025
:1015C000F7E6C2444FF0010B0EF0070E0BFA0EFEC9
:1015D0009AF810B02BEA0E0E8AF810E000293FF4BA
:1015E000E6AE49E777EEE66AF5EEC06AF1EE10FA8C
:1015F000CCBF012700279BE736EE666AB5EEC06ACE
:10160000F1EE10FACCBF0121002189E776EE473ACE
:10161000F5EEC03AF1EE10FACCBF0122002277E7D6
:101620000124002A3FF4C1AE49E774EEC54A012205
:10163000F5EEC04AF1EE10FA7FF589AE35EEC55AE7
:101640000121B5EEC05AF1EE10FA7FF591AE0127F7
:1016500097E6DDE91223134406EE102A1293139B3A
:101660005B421393D8E500BF2DE9F04F89B008AC79
:101670009DF84870019104E90C000B78002B00F0F4
:10168000AB801A469DF818809DF8193006464546ED
:1016900090460393079B0593A8F12004E3B25E2BC9
:1016A00000F29E8033685E4ADB68934240F09B8084
:1016B0008020B3882B44834200F392803368594AD8
:1016C0009B68934240F092804020F188039A0291F7
:1016D0008B18834200F38480002A00F0918002FB83
:1016E00004F46FF00049059BA1441444B6F804B01B
:1016F00003EB4909023BCDF8108003EB44030C4691
:101700009A4639F802CFA5B304F007034FF0010E53
:10171000E20859460EFA03FE0BF110034FFA8EFE53
:1017200003EBC21200236FEA0E0832440DE07F295A
:1017300006D83F2C04D8107897B14EEA00001070FC
:10174000013301320131AB4213D00CFA03F0000433
:10175000EDD47F29F4D83F2CF2D81078002FECD0AC
:10176000013308EA000001320131AB4202F8010CFA
:10177000EBD1D14504F10104C3D1DDF8108032680A
:101780000BEB05042649D368A4B28B4234D18020E8
:10179000844204D3D36822498B423AD17F24936890
:1017A000204AB480934224D14020029B834206D336
:1017B00033681C4A9B68934225D13F230293029BC6
:1017C000F380019B1878404507D113F8018F0193EE
:1017D000B8F1000F7FF460AF002009B0BDE8F08FD2
:1017E0004FF00008EDE73046984762E730469847EB
:1017F0006BE730469847D8E7304698473268C7E7E6
:10180000B6F804B0BBE730469847013883B202937C
:10181000D5E7304698470138326884B2BFE700BF49
:101820006D0A0008690A00082DE9F04F964683B05A
:1018300006461F461EF8014B91460D460C9B0D981F
:101840009DF83880002C00F010814FF0000C1EF83D
:10185000014B0CF1010C002CF9D11FFA8CFC3C78E7
:101860007A7814FB0CFC11B20FFA8CFC2CEAEC7C9D
:10187000082800F2E580DFE800F04A5DBAD1748400
:101880009DA405009A88B3F800A09244B3F90620FD
:10189000AAEB0C0A002A1FFA8AFA49DB5C88F1805D
:1018A00004EB6204A6F804C0A6F800A0A4EB510162
:1018B0008CB274802B68DFF8D4B1DA685A454CD109
:1018C0008020504505D8DA685A4540F0D5804FF061
:1018D0007F0A9B68A5F804A0DFF8B4A1534540F047
:1018E000C1804020A04205D82B689B68534540F03A
:1018F000BE803F24EC804946CDF80080284697E81A
:101900000C00FFF7B1FE304603B0BDE8F08FB3F92D
:101910000420B3F800A0002AB8BF01320AEB620A23
:10192000B3F90620AAEB6C0A002A1FFA8AFAB5DA84
:101930000132B3E7B3F900A0B3F902402B68DFF836
:101940004CB1DA68A6F800A01FFA8AFA5A457480EA
:10195000A6F804C0A4B2F180B2D0284690472B6804
:10196000AFE75C88D888B3F900A00444A6F804C0A7
:10197000A6F800A01FFA8AFAA21AF18094B2748025
:1019800098E7B3F90400B3F800A00028B8BF01300D
:101990000AEB600AAAEB6C0A5C881FFA8AFADB88F9
:1019A000A6F804C01C44F180A6F800A0A21A94B2C4
:1019B00074807FE7B3F800A098888244AAEB0C0AF1
:1019C000EAE7B3F906205C88002AB3F900A0F180A9
:1019D000B8BF0132A6F800A0A6F804C01FFA8AFA20
:1019E00004EB6204A4EB51018CB2748062E7B3F99A
:1019F0000420B3F800A0002AB3F90240A6F804C0FE
:101A0000B8BF01327480F180A4B20AEB620AAAEB7B
:101A10006C0C1FFA8CFAA6F800A04BE7B3F800A0F4
:101A20009A88B3F902409244A6F804C07480A4B224
:101A3000AAEB0C0CF1801FFA8CFAA6F800A039E78B
:101A40002B680024DFF844B0DA6834805A4574808B
:101A5000B480F48017D19B68DFF834A0AC80534584
:101A60003FF448AF284698473CE7A446F7E62846A7
:101A70009847013884B23DE72846904701382B68E3
:101A80001FFA80FA25E7A24667E700BF6D0A000843
:101A9000690A00082DE9F04F87B09DF84850109C66
:101AA0002E4601959DF844509EB399422ED89946F2
:101AB000A24228D87F29164694BF0023012308E0BC
:101AC0009CF810804EEA080E8CF810E00136B44203
:101AD00019D33F2EFAD8002BF8D14FEAD60C06F0D6
:101AE000070E4FF0010801EBCC1C08FA0EFE8444EF
:101AF000002DE5D19CF810B001362BEA0E0AB44255
:101B00008CF810A0E5D201318945D1D207B0BDE8EB
:101B1000F08FA3EB0108B8F1000FB8BFC8F10008BF
:101B20009942C0F04E817F2B4FF0FF3A94BF0026C0
:101B300001263F2A009694BF002701270297A6B9E5
:101B40009FB9D60802F0070C012703EBC61606441E
:101B5000002D00F0948107FA0CF796F810C047EAC0
:101B60000C073774002602960096994200F0978180
:101B7000464694468E46BEF17F0F16D8BCF13F0F05
:101B800013D84FEADC070CF0070B4FF001090EEBFE
:101B9000C7170744002D00F0398109FA0BF997F8AF
:101BA00010B049EA0B0987F81090770018BFD644A7
:101BB000B84502DD46440CF1FF3C7345DBD162457C
:101BC000D9D100260496A4EB0209009FB9F1000FB9
:101BD000B8BFC9F100093F2C94BF00260126A242DC
:101BE000C9F100080396C0F02381002F40F0508116
:101BF000002E40F04D814FF0FF360096E60803EBD3
:101C0000C6160644002D00F01E814FF0010C04F0B2
:101C100007070CFA07F796F810C047EA0C07377465
:101C200000260396A24200F03D81C44616461F4698
:101C300005927F2F15D83F2E13D84FEAD60E06F007
:101C4000070B4FF0010A07EBCE1E8644002D00F073
:101C5000E6800AFA0BFA9EF810B04AEA0B0A8EF8F0
:101C600010A0B8EB4C0F4FEA4C0E02DAACEB090CAB
:101C7000013FBEF1000F01D0009A1644BB42D8D1FB
:101C8000B442D6D1059AA1EB030EBEF1000FB8BF46
:101C9000CEF1000E7F2994BF4FF0000A4FF0010AE9
:101CA00099428CBF4FF001094FF0FF39BAF1000F94
:101CB00013D1039E8EB9E60801EBC6160644002D2B
:101CC00000F0D3804FF0010C04F007070CFA07F77F
:101CD00096F810C047EA0C073774049E26BB774677
:101CE00026467F2B14D83F2E12D84FEAD60C06F08A
:101CF000070B4FF0010803EBCC1C8444002D73D07C
:101D000008FA0BF89CF810B048EA0B088CF8108021
:101D10005FEA470C18BF4B44E64501DD7744013EBE
:101D20009942DED1B442DCD1A2EB040EBEF1000F29
:101D3000B8BFCEF1000EA2428CBF4FF001084FF0A9
:101D4000FF38CEF1000CBAF1000F0ED1029B63B93F
:101D5000D30802F00707012601EBC3130344002D4B
:101D60007CD0BE401F7C3E431E74019B002B7FF441
:101D7000CDAE66460B467F2B12D83F2C10D8E70815
:101D800004F0070A4FF0010903EBC7170744A5B396
:101D900009FA0AF997F810A049EA0A0987F8109099
:101DA000BCEB460F4FEA460702DAA6EB0E06013BF4
:101DB00007B144449942DED1A242DCD107B0BDE86C
:101DC000F08F3F2A4FF0010A94BF002601267F2B97
:101DD000029694BF002701270097002E7FF4C8AE1B
:101DE000002F3FF4AEAEC3E608FA0BFB9CF8108060
:101DF00028EA0B088CF810808AE709FA0AFA97F8A3
:101E0000109029EA0A0987F81090C9E709FA0BFB34
:101E100097F8109029EA0B0987F81090C5E60AFA9E
:101E20000BFB9EF810A02AEA0B0A8EF810A018E708
:101E300097BB8EBB01260096E60803EBC616064448
:101E4000002D7FF4E2AE012704F0070C039507FA9A
:101E50000CFC377C27EA0C073774E3E606FA07F731
:101E60001E7C26EA07061E747FE7012704F0070C94
:101E700007FA0CFC377C27EA0C0737742DE707FAC2
:101E80000CFC377C029527EA0C07009537746CE64A
:101E90004FF0FF360096C5E601260096C5E60126FE
:101EA000049690E601260196EDE600BF2DE9F04F7D
:101EB000DFF81CB24FF4806295B000210BF11000E6
:101EC00013F0FEFA794B00221B68CBF804209342F2
:101ED000C0F2BE827649DA17764881FB034108AC2E
:101EE000C2EB610202EB4201013AA3EB81030092D3
:101EF0001021714A50F82330204613F0DDFB2346B1
:101F00006E4A20210CA813F0D7FB6D4B5A781D7830
:101F10005B68049205939DF83030002B6ED00CAABC
:101F20000292203BDAB25E2A68D8BBF8048008EB44
:101F3000050EBEF1800F61DCBBF806200499039208
:101F40000A44402A5ADC002943D0049A6FF0004C1E
:101F5000039C02FB03F39C441344059AA2F1020A7A
:101F600002EB4C0C0AEB430A3CF8026F6DB304F031
:101F700007030127E20841469F4008F110037FB2A2
:101F800003EBC21200236FEA07095A440BE07F29D2
:101F900004D83F2C02D81078384310700133013236
:101FA0000131AB4211D006FA03F00004EFD47F29CF
:101FB000F4D83F2CF2D8107801330132013109EA0C
:101FC0000000AB4202F8010CEDD1E24504F101043E
:101FD000CAD1039A1FFA8EFE02993F2A11F8013FD7
:101FE00028BF3F22BEF17F0F029128BF4FF07F0E26
:101FF000ABF80620ABF804E0002B92D13149B6EEE5
:10200000007A4FF4A013304AD1ED007A0CA8CBF837
:102010000430202177EE877AFDEEE77A17EE903ACA
:1020200013F04AFB294A53781578049352689DF8B7
:1020300030300592002B00F085800CAA0292203BE4
:10204000DAB25E2A7ED8BBF8048008EB050EBEF13A
:10205000800F77DCBBF80620049903920A44402ADB
:1020600070DC002958D0049A6FF0004C039C02FBEE
:1020700003F39C441344059AA2F1020A02EB4C0CB0
:102080000AEB430A3CF8026F002D41D004F007032D
:102090000127E20841469F4008F110037FB203EB9D
:1020A000C21200236FEA07095A441FE030000024DF
:1020B000ABAAAA2A90690108D4680108DC68010863
:1020C000840000248C0A0024E86801088C000024A5
:1020D0007C0600247F2904D83F2C02D8107838438E
:1020E00010700133013201319D4211D006FA03F024
:1020F0000004EFD47F29F4D83F2CF2D810780133B4
:102100000132013109EA00009D4202F8010CEDD1D3
:10211000D44504F10104B5D1039A1FFA8EFE029949
:102120003F2A11F8013F28BF3F22BEF17F0F0291E5
:1021300028BF4FF07F0EABF80620ABF804E0002B71
:102140007FF47DAFB94BF6EE007A9FEDB97A642645
:10215000D3ED006A4FF4F012B64D2021E6EE877AF7
:10216000CBF804200CA8B44AFDEEE77A17EE904AAB
:1021700085FB0435E317C3EB651306FB134400949A
:1021800013F09AFAAD4A53781578049352689DF883
:1021900030300592002B6ED00CAA0292203BDAB2AE
:1021A0005E2A68D8BBF8048008EB050EBEF1800FEC
:1021B00061DCBBF80620049903920A44402A5ADCE9
:1021C000002943D0049A6FF0004C039C02FB03F3F8
:1021D0009C441344059AA2F1020A02EB4C0C0AEB50
:1021E000430A3CF8026F6DB304F007030127E208CD
:1021F00041469F4008F110037FB203EBC212002357
:102200006FEA07095A440BE07F2904D83F2C02D813
:10221000107838431070013301320131AB4211D0D4
:1022200006FA03F00004EFD47F29F4D83F2CF2D84B
:10223000107801330132013109EA0000AB4202F8A3
:10224000010CEDD1E24504F10104CAD1039A1FFA51
:102250008EFE02993F2A11F8013F28BF3F22BEF1AE
:102260007F0F029128BF4FF07F0EABF80620ABF82E
:1022700004E0002B92D1724AB6EE007A4FF420139C
:102280002021D2ED007A0CA86E4A77EE877ACBF83F
:102290000430FDEEE77A17EE903A13F00DFA674B33
:1022A0005A781C785B68049205939DF83030002BB7
:1022B0006ED00CAA0292203BDAB25E2A68D8BBF834
:1022C000048008EB040EBEF1800F61DCBBF8062031
:1022D000049903920A44402A5ADC002943D0049A04
:1022E0006FF0004C039D02FB03F39C441344059ADA
:1022F000A2F1020A02EB4C0C0AEB430A3CF8026F13
:102300006CB305F007030127EA0841469F4008F136
:1023100010037FB203EBC21200236FEA07095A448D
:102320000BE07F2904D83F2D02D810783843107075
:102330000133013201319C4211D006FA03F000044E
:10234000EFD47F29F4D83F2DF2D810780133013231
:10235000013109EA00009C4202F8010CEDD1E2458E
:1023600005F10105CAD1039A1FFA8EFE02993F2A90
:1023700011F8013F28BF3F22BEF17F0F029128BF15
:102380004FF07F0EABF80620ABF804E0002B92D1A3
:10239000DFF8B8804FF0B0094FF47A7600250223B9
:1023A00007AA9BF80C1010272748A8F18004009674
:1023B0008DF81C508DF81D9002F04AFF022307AAE9
:1023C0009BF80C10204800968DF81C508DF81D507D
:1023D00002F03EFF022307AA9BF80C101A48009651
:1023E0008DF81C508DF81D7002F032FF4FF47A7793
:1023F00014F8015F4026022307AA9BF80C1012482C
:1024000000978DF81C608DF81D5002F021FF4445A7
:10241000ECD109F1010904F180085FFA89F9B9F1F9
:10242000B80FB9D115B0BDE8F08F00BF940A0024F1
:102430000000C8421F85EB51F86801088C00002499
:10244000900A002408690108840600240B07002470
:10245000014B08AC089352E52D2D2D002DE9F047D6
:102460004FF0B00884B0054600F1870700F28749B5
:102470004FF47A7A00262979022303AA2846CDF858
:1024800000A0A7F180048DF80C608DF80D8002F09B
:10249000DFFE2979022303AA2846CDF800A08DF893
:1024A0000C608DF80D6002F0D3FE4FF0100C29790E
:1024B000022303AA2846CDF800A08DF80C608DF801
:1024C0000DC002F0C5FE4FF47A7614F801CF4FF03C
:1024D000400E2979022303AA284600968DF80CE0C5
:1024E0008DF80DC002F0B4FEBC42ECD104F18007BF
:1024F00008F101084F455FFA88F8B9D104B0BDE88A
:10250000F08700BF84B070B584B004464FF47A768B
:1025100009AD85E80E009DF8383029460025037185
:1025200002F000FEAE2303AA00968DF80D3020467F
:10253000217902238DF80C5002F08AFED52303AADC
:102540000096204621798DF80D3002238DF80C502D
:1025500002F07EFE802303AA0096204621798DF8A2
:102560000D3002238DF80C5002F072FEA82303AA4E
:102570000096204621798DF80D3002238DF80C50FD
:1025800002F066FE3F2303AA0096204621798DF8CB
:102590000D3002238DF80C5002F05AFEDA2303AA04
:1025A0000096204621798DF80D3002238DF80C50CD
:1025B00002F04EFE122303AA0096204621798DF8E0
:1025C0000D3002238DF80C5002F042FED32303AAF3
:1025D0000096204621798DF80D3002238DF80C509D
:1025E00002F036FE03AA00960223217920468DF8D8
:1025F0000C508DF80D5002F02BFE402303AA0096DC
:10260000204621798DF80D3002238DF80C5002F010
:102610001FFEA62303AA0096204621798DF80D30CF
:1026200002238DF80C5002F013FEA42303AA009697
:10263000204621798DF80D3002238DF80C5002F0E0
:1026400007FE8D2303AA0096204621798DF80D30D0
:1026500002238DF80C5002F0FBFD142303AA009610
:10266000204621798DF80D3002238DF80C5002F0B0
:10267000EFFDA12303AA0096204621798DF80D30A5
:1026800002238DF80C5002F0E3FDC82303AA009644
:10269000204621798DF80D3002238DF80C5002F080
:1026A000D7FD812303AA0096204621798DF80D30AD
:1026B00002238DF80C5002F0CBFD8F2303AA009665
:1026C000204621798DF80D3002238DF80C5002F050
:1026D000BFFDD92303AA0096204621798DF80D303D
:1026E00002238DF80C5002F0B3FD252303AA0096B7
:1026F000204621798DF80D3002238DF80C5002F020
:10270000A7FDDB2303AA0096204621798DF80D3022
:1027100002238DF80C5002F09BFD342303AA00968F
:10272000204621798DF80D3002238DF80C5002F0EF
:102730008FFDAF21009603AA02238DF80D102046CD
:1027400021798DF80C5002F083FD04B0BDE8704093
:1027500004B070472DE9F04F4FF00008C748C84C4F
:102760000F252DED068B9FB000F048FA4146C34877
:102770000CAF00F03BFB0B2000F042FA03460C20AC
:102780003E46ADF81C3000F03BFA10223C23CDF859
:102790003C808DF84020BB4A8DF844306B44ADF846
:1027A0001E00CDE90C8202220E9293E807008DE80C
:1027B0000700B54897E80E00FFF7A4FE41464FF426
:1027C0008062B24812F07CFE0122B14BB149009206
:1027D000B1480CCBFEF748FFAB48FFF73FFE802126
:1027E000A64800F02BFA20464FF44073238050F89F
:1027F000041B01F091FD04F1080001F003FD2846DF
:10280000013500F0FDF90346EDB23046ADF8143065
:1028100002220599123601F0EDFD132DEFD10423AC
:1028200039469E48B7EE009A1A469D4D01F0F6FDD6
:102830009A4802F001F8914800F0FCF9B0EE408AA5
:10284000F6EE008ADFED979A0026284689EE08AA60
:1028500085ED048AAE6140F20118C5ED029A0227A7
:10286000C5ED018A4FF0000BC5ED038AB0EE690A91
:10287000DFF88CA2DFF88C9285ED05AA12F0EEF954
:10288000F0EE407AA5F8288085ED019AB0EE690A4D
:102890002F70C5ED077A844D2846AE6185ED048A18
:1028A00085ED05AAC5ED029AC5ED018AC5ED038A3D
:1028B00012F0D4F9A5F8288085ED070AB0EE480A91
:1028C0007A482F7085ED019A11F0DCFE784FB0EE5A
:1028D000680A764811F0C2FF9FED760A734811F03E
:1028E00059FFB0EE480A3846734D11F099FD734B0D
:1028F000734ABB60734B7E61DFF80C82724E734982
:102900005E48FB6087ED069A3A6200F08FF97048E6
:1029100001F036FD002800F09D80D4E92B03C21A97
:10292000002A114627DB59B3984200F0A38003EB3D
:10293000C3020133D4E9291C4FEA021E634501EBAF
:10294000021211F80E1092F808E0527AC4F8B03072
:1029500003D3A3EB0C03C4F8B030012940F0868008
:10296000002ADCD0C21A87F834102970002A1146D8
:10297000C6F800E0D7DAD4F8A81011440029D3D162
:102980000BF1010BBBF57A7FC1D3F6EE007ADAEDDD
:10299000006A99ED007A4F4B76EEA76A9FED416A87
:1029A00037EE277AD3ED005A4B4BFDEEE66ABDEECB
:1029B000C77AE5EE867A16EE902A17EE100A0532EF
:1029C000323083FB023CD317444AFDEEE77AC3EB77
:1029D000AC0382FB002CC217642003EB8303C2EB21
:1029E0006C124FEA430C00FB02F2D8F80000B0EB87
:1029F000430F04D13A4B1B68934200F08780306844
:102A000007EE10CAB8EEE75ADFED265A4FF0000B7A
:102A1000B8EEC76A07EE102A324BF8EEC76AC8F85C
:102A200000C085EE257A18602D4B1A602E4BC3ED41
:102A3000007A2E4B83ED006A2D4BC3ED006A2D4BBF
:102A400083ED007AFFF732FA214801F099FC002863
:102A50007FF463AF284801F0D5FB1D4801F094FCDA
:102A6000074A2649101D01F081FC56E700297FF432
:102A700056AFC21A0321297052E700BF200B002471
:102A8000600B002401080109840600248C06002440
:102A90008C000024186901087C060024380B0024EF
:102AA000A49C00240000C842D09C0024D40A002426
:102AB000980A002400007A446C0600240AD7233CBC
:102AC000000048C2CDCCCC3D30000024750A00087F
:102AD000640B0024FC9C0024676666661F85EB512E
:102AE000080000242C0000240C0000248C0A002480
:102AF000900A0024940A0024680B0024F10D0008B9
:102B000074060024D00A002404000024074B17EEAA
:102B1000900A1B6883427FF472AF054B30681B68D4
:102B200098427FF46DAF8B46F1E600BF0C000024A5
:102B30002C00002410B521480024214A21490460BA
:102B400044610462C46312F08FF81F481F4B4FF4B6
:102B500040711B4AC0F89C3040F20F73016000F1D5
:102B6000B401C0F8A03040F201134460C0F8AC409A
:102B7000C0F8B040C0E92913154912F075F8154B9B
:102B800015480F4A03601549846012F06DF8144926
:102B90000B4A144812F068F8094A1149124812F019
:102BA00063F8074A1149124812F05EF8044A1149C5
:102BB0001148BDE8104012F057B800BF200B0024A8
:102BC00000000024450A0008600B00240080707F8C
:102BD000710A00082C6901087C060024650A0008B7
:102BE0004D0A0008A49C0024D09C0024510A00082F
:102BF000D40A0024490A0008980A0024704700BF3C
:102C0000202882B009D8084B03EB400213F810309B
:102C1000507843EA002002B0704701230C2043EAB9
:102C2000002002B0704700BFC0690108143001F0F5
:102C300009BA00BF143001F001BA00BF38B500F185
:102C4000140504462DED028B284601F0E9F92846CB
:102C500001F0F4F92846B0EE408A01F0DDF9D0ED3C
:102C6000007AF8EE677A88EE277ABDEC028B84ED65
:102C70000E7A38BD10B540F203338EB000244FF603
:102C80000B7240F20341ADF8083009A80123ADF8FA
:102C90001020ADF824202246ADF80C1000940299C3
:102CA00007940C94CDE90544CDE90A4401F0E2FE15
:102CB00004A8012322460399009401F0DBFE09A831
:102CC00001F0BEFF10B901200EB010BD04A801F044
:102CD000B7FFA0420CBF022020460EB010BD00BFBF
:102CE0002DE9F04103239AB0012700240646CDE9DF
:102CF00014373B4BCDE9104340F20453CDE916475E
:102D0000ADF84830FFF7B6FFB842054625D0022897
:102D100045D040F60132334B0DF12C081894ADF834
:102D20002C200B981997CDF84A3000F0E3F810A941
:102D300006F13C0002F0C0FF302003224FF07E532A
:102D400041460D930E93CDE90B02F26B06F1140090
:102D500001F02AF91AB0BDE8F0811023214A06A932
:102D600006908DF828300DF12C081F4BCDF84A2025
:102D700007930294CDE91804CDE9080402A802F0F3
:102D8000D1F90823029A03A94046ADF80C508DF8FA
:102D90000E40049505930B9400F0ECF8C7E7002073
:102DA0000121104B0DF12C083A460094CDF84A3021
:102DB0004FF60B730C94ADF82C302346CDE9180177
:102DC00040F601314046ADF818100699CDE90D44A2
:102DD00001F050FE2146404601F03EFFA7E700BF4C
:102DE00004020404040604030704010B2DE9F04760
:102DF00004462DED028B82B000294DD0012140F216
:102E0000011200230091ADF804208DF80630364AF7
:102E10000127364B04F10409354904F129086260A1
:102E200040F20272A36040F60663E16004F1250AF5
:102E3000A4F82520A4F82930278284F8277084F884
:102E40002B7003F0F3FA054603F056F9694606467F
:102E500050BB4DB304F130008DF8067003F06EFAEC
:102E6000072D3CD104F114052046FFF739FF284611
:102E700001F0E4F82846B0EE408A01F0CDF8D0ED3C
:102E8000007AF8EE677A88EE277A84ED0E7A02B03F
:102E9000BDEC028BBDE8F08740F2011300918DF884
:102EA0000610ADF80430B2E704F1300003F046FA42
:102EB000072D11D04946204602F07EFB0EB9002DA9
:102EC000D0D1504601F0D2FE404601F0CFFE04F1D1
:102ED000120000F079F9C5E7002EF2D1C2E74946A9
:102EE000204602F069FBBDE7050805090507050650
:102EF000050A060610B584B003460124ADF80400A7
:102F000003A8ADF80C30ADF80E4001F0AFFE21463D
:102F100003A801F087FF204603F0ECF8002103A886
:102F200001F080FF204603F0E5F8214603A801F0F8
:102F300079FF04B010BD00BF10B5C2F3002384B008
:102F40000C46017C8DF80D2043EA4402FA2402234A
:102F50008DF80C2003AA009402F07AF918B101242C
:102F6000204604B010BD04460A2003F0C3F82046F2
:102F700004B010BD034670B543F8042B044684B07A
:102F800007C983E80700A37983B91A210B461E22DB
:102F9000FA2523742046ADF80C20022303AA0095DD
:102FA00002F056F928B1012004B070BD1B210B4678
:102FB000EDE70A2003F09EF84FF4B8520095022383
:102FC000ADF80C20204603AA217C02F041F900282C
:102FD000E9D10A2003F08EF841F202720095022333
:102FE000ADF80C20204603AA217C02F031F900281C
:102FF000D9D10A2003F07EF8042200950223ADF80F
:103000000C20204603AA217C02F022F90028CAD114
:103010000A2003F06FF8062200950223ADF80C2079
:10302000204603AA217C02F013F90028BBD10A2014
:1030300003F060F841F2082200950223ADF80C205D
:10304000204603AA217C02F003F90028ABD10A2014
:10305000064603F04FF80095022303AA217C204680
:10306000ADF80C6002F0F4F800289CD1304603F073
:1030700041F8009522790C232046002A8DF80C3067
:1030800003AA4FF0020314BF622142218DF80D10F4
:10309000217C02F0DDF8002885D1304603F02AF8C3
:1030A0002279D4E902310B43DBB20AB943F0400381
:1030B00062790AB143F020030E22FA258DF80D3013
:1030C0002046009502238DF80C2003AA217C02F0F3
:1030D000BFF800287FF467AF0A2003F00BF8102236
:1030E00000950223ADF80C20204603AA217C02F0B3
:1030F000AFF800287FF457AF0A2002F0FBFF12213F
:1031000000950223ADF80C1003AA217C204602F0A2
:103110009FF800287FF447AF0A2002F0EBFF01225E
:1031200009212046FFF708FF003818BF01203BE7C0
:10313000F0B5102387B0234C01220025012600277B
:1031400002A920460195CDE902234FF48052CDE932
:1031500004670AF097F9642003F042FD02A94FF4D6
:1031600080522046CDE9046702261027CDE9026788
:103170000AF088F90322102302A92046CDE9022390
:1031800000230422CDE904234FF480520AF07AF997
:1031900040F23223042202A9019310232046CDE9F4
:1031A0000223019A012305924FF4805204930AF0FE
:1031B00069F940F6060120460AF084F9284607B06E
:1031C000F0BD00BF089D00241C4B00221C494FF09D
:1031D000400C30B5054689B00220596007219A603D
:1031E0001A620124DA620A224FF4006EDC60069251
:1031F0002022CDE9000104200821CDE902010320AD
:103200001021CDE9040108206946C3E904024FF406
:10321000C072181DC3E906C24FF48052C3E909E227
:103220000AF006F938B92846FFF782FF003818BFC0
:10323000012009B030BD204609B030BD049D0024F6
:1032400040410052614A0021D0B513688EB00A9106
:10325000002B40F0B9805E4B01214FF683700C24A7
:1032600011600221D3F8D4200026032742F48052B3
:10327000C3F8D420D3F8D42002F480520092009AEC
:10328000D3F8E02042F01002C3F8E020D3F8E020A9
:1032900002F010020192019AD3F8E02042F04002BD
:1032A000C3F8E020D3F8E02002F040020292029A34
:1032B000D3F8E02042F00802C3F8E020D3F8E02081
:1032C00002F008020392039AD3F8E02042F48072DD
:1032D000C3F8E020D3F8E02002F480720492049A4C
:1032E000D3F8E02042F08002C3F8E020D3F8E020D9
:1032F00002F080020592059AD3F8E02042F0200205
:10330000C3F8E020D3F8E02002F020020692069AEB
:10331000D3F8E02042F00402C3F8E020D3F8E03014
:103320000C9403F0040307930323079A0B93CDE94E
:10333000080108A9274805F0D9FA48F237120223F4
:1033400008A925480C94CDE90823CDE90A6705F0C2
:10335000CDFA4CF20372022308A920480C94CDE95F
:103360000823CDE90A6705F0C1FA40F2FF620223A3
:1033700008A91B480C94CDE90823CDE90A6705F09C
:10338000B5FA4FF60C72022308A916480C94CDE941
:103390000823CDE90A6705F0A9FA4FF63F02022398
:1033A00008A911480C94CDE90823CDE90A6705F076
:1033B0009DFA2022022308A90A480C94CDE90A6745
:1033C000CDE9082305F092FA0EB0D0BD009D00248F
:1033D000004402580010025800180258000C02580D
:1033E00000200258001C0258001402582DE9F04F2A
:1033F000DFF8108406460D46144608F118002DED3E
:10340000028B89B000AF02F04FFDD8F8183073B3CB
:10341000D8F81C30D8F80490002B43690BBF4FF04C
:10342000080A4FF0100A4FF0020B4FF0040BB9F1ED
:10343000000F2AD0A200EA46012B02F1070222F077
:103440000702ADEB020D6846ADEB020D694600F0D8
:103450003F81022B00F0D680002B6FD02246C84758
:10346000D5462437BD46BDEC028BBDE8F08FD8F8B9
:103470001C30002BF5D0D8F804904FF0080A4FF01C
:10348000020B4369B9F1000FD4D1FB61D8F80030C9
:10349000BB61002BE5D0D54802F078FD6B46BBF14F
:1034A000020F786108EE103AFB6900F083816A46EA
:1034B0005146A2EBC40295466200EA46B2FBFBF21B
:1034C000AAEBC40085460AEB8200EE46F861ADEB3C
:1034D000010DF8690EEB820CC7F810C0EC46ADEB9D
:1034E000010D00EB8201CCF80400CCF8081001EBD0
:1034F00082013869E946CCF80C1000EB8201CCF867
:1035000000A001EB8202C9E900E0C9E90212012B27
:1035100000F06483022B00F06C82002B00F08081AD
:10352000620849466046BB69984718EE103A24374E
:103530009D46BD46BDEC028BBDE8F08F002C8DD0C2
:103540001A46D8ED0C6A9FEDB27A8446331D36F9DF
:1035500022E00CF1080C07EE90EA33F922E0023287
:10356000F8EEE77A944267EE877A67EEA67A4CED3A
:10357000027A07EE90EAF8EEE77A67EE877A67EE6E
:10358000A67A4CED017AE2D8F9612246C847984EF6
:10359000D8ED0D6A0020F9692B1D9FED9E7A9FEDF5
:1035A0009E6ADFED9E5A22E0F4EEC67AF1EE10FA42
:1035B000C0F2C88447F6FE72D1ED017A45F82020AA
:1035C00066EEA77AF4EEC77AF1EE10FA40F2F080D8
:1035D000F4EEC67AF1EE10FAC0F2D58447F6FE7228
:1035E00043F820200230083184427FF639AFD1ED14
:1035F000007A66EEA77AF4EEC77AF1EE10FAD3D825
:103600003246D9E7002C3FF429AFD8ED0C6A844646
:103610009FED787A0022331D8E4656F822100CF169
:10362000080C07EE901A53F822100232F8EEE77AEF
:10363000944267EE877A67EEA67A4CED027A07EE3F
:10364000901AF8EEE77A67EE877A67EEA67A4CED85
:10365000017AE2D871462246C7F81CE0C847664E98
:10366000D8ED0D6A0020F9692B1D9FED6A7A9FED58
:103670006A6ADFF894C120E0F4EEC67AF1EE10FA3F
:10368000C0F279843246D1ED017A45F8202066EE09
:10369000A77AF4EEC77AF1EE10FA40F28780F4EEE2
:1036A000C67AF1EE10FAC0F25E84324643F820206A
:1036B0000230083184427FF6D3AED1ED007A66EE57
:1036C000A77AF4EEC77AF1EE10FAD5D86246DAE7B7
:1036D000002C3FF4C3AED8ED0C6A86469FED477AC6
:1036E0004FF0000C331D56F82C200EF1080E82F41A
:1036F0000002A2F5000207EE902A53F82C200CF1EC
:10370000020CF8EEE77A82F400026445A2F50002AA
:1037100067EE877A67EEA67A4EED027A07EE902A78
:10372000F8EEE77A67EE877A67EEA67A4EED017AD1
:10373000D9D8F9612246C847314ED8ED0D6A00202C
:10374000F9692B1D9FED337A9FED336ADFF8BCC01A
:103750001FE0F4EEC67AF1EE10FAC0F2FC833246B6
:10376000D1ED017A45F8202066EEA77AF4EEC77A0B
:10377000F1EE10FA18D9F4EEC67AF1EE10FAC0F2B2
:10378000DA83324643F820200230083184427FF643
:1037900067AED1ED007A66EEA77AF4EEC77AF1EE65
:1037A00010FAD6D86246DBE76246EBE762467DE771
:1037B000324615E7A100D6466208073121F007011D
:1037C000ADEB010DEA46ADEB010D6946ADEB0E0D1B
:1037D0000AEB8200EC46ADEB0E0D01EB8202F861C4
:1037E000E946CCE900A0C9E9001290E6589D002402
:1037F0000280FFFF000000300082FF7F00000034E5
:1038000082FF7F003C9D0024007E00807E0080FFC0
:103810000000003804FF7FBF04FF7F3F00FEFF462B
:10382000002C00F0C982BBF1020FD8F8242000F070
:10383000FA827969C7F8049002EB810E5FED0C5AA9
:103840008A00DCF808100EF104007A611A46DCF8F0
:103850000C303B61331DD7F810903D61FD69C7E91D
:1038600002CB8C46834636F92210D8ED0C7A06EE50
:10387000101A33F9221006EE901A3EF92210B8EE13
:10388000C66A07EE101AF8EEE66A3BF92210B8EEA7
:10389000C77A26EE256A66EEA56A27EE257A26EE19
:1038A000276A66EEA76A27EE277A07EE901A510874
:1038B0000232F8EEE77A0AEB8100944280ED006A6A
:1038C00005EB810067EEA57AC0ED006A0CEB810084
:1038D00009EB810180ED007A98ED0C7A67EE877A2A
:1038E000C1ED007ABFD8D7F804903D69D7E902CB83
:1038F00060466208BB6949469847D8F82C307A6917
:10390000D8ED0D6A1A441FED3D7A1FED3D6A2B1D5F
:10391000904602F1040A5FED3F5A0022A84ED9E911
:1039200000EC51E0F4EEC67AF1EE10FAC0F2C78274
:1039300047F6FE7045F822000CEB0100D0ED007A4E
:1039400066EEA77AF4EEC77AF1EE10FA4BD9F4EEF0
:10395000C67AF1EE10FAC0F2BA8247F6FE70BBF1F9
:10396000020F43F822002BD0D9F808000844D0ED0C
:10397000007A66EEA77AF4EEC77AF1EE10FA36D93D
:10398000F4EEC67AF1EE10FAC0F2CD8247F6FE7080
:1039900048F82200D9F80C000144D1ED007A66EE17
:1039A000A77AF4EEC77AF1EE10FA1ED9F4EEC67AD1
:1039B000F1EE10FAC0F2AF8247F6FE714AF822101B
:1039C000023294427FF6B1AD51080EEB81008900BE
:1039D000D0ED007A66EEA77AF4EEC77AF1EE10FA2F
:1039E000A0D83046A6E73046B9E73146E6E730468C
:1039F000CEE7002C00F0E081BBF1020FD8F82430B4
:103A000000F0E1817A69DCF8081003EB820EC7F858
:103A100004909300DFED6B5A0EF1040000227B61ED
:103A2000DCF80C303B61331DD7F810903D61FD6927
:103A3000C7E902CB8C46834656F82210D8ED0C7AA3
:103A400007EE101A53F82210B8EEC76A07EE101AE4
:103A50005EF82210F8EEC76A07EE101A26EE256A05
:103A60005BF82210B8EEC77A66EEA56A26EE276AE2
:103A700027EE257A66EEA76A27EE277A07EE901AD8
:103A800051080232F8EEE77A0AEB8100944280EDA9
:103A9000006A05EB810067EEA57AC0ED006A0CEBC9
:103AA000810009EB810180ED007A98ED0C7A67EED8
:103AB000877AC1ED007ABFD8D7F804903D69D7E97D
:103AC00002CB60466208BB6949469847D8F82C305B
:103AD0007A69D8ED0D6A1A449FED3E7A9FED3E6AF1
:103AE000131D9246DFF8E4C00022FB612B1D364E09
:103AF000D9E9008E4EE0F4EEC67AF1EE10FAC0F28B
:103B0000FC81304645F822000EEB0100D0ED007A32
:103B100066EEA77AF4EEC77AF1EE10FA49D9F4EE20
:103B2000C67AF1EE10FAC0F2EF813046BBF1020F17
:103B300043F822002AD0D9F808000844D0ED007AD2
:103B400066EEA77AF4EEC77AF1EE10FA35D9F4EE04
:103B5000C67AF1EE10FAC0F2C98130464AF8220066
:103B6000D9F80C000144D1ED007A66EEA77AF4EEA4
:103B7000C77AF1EE10FA1ED9F4EEC67AF1EE10FA19
:103B8000C0F2AD813146F86940F822100232944209
:103B90007FF6CBAC510808EB81008900D0ED007AAC
:103BA00066EEA77AF4EEC77AF1EE10FAA3D8604673
:103BB000A8E76046BAE76146E5E76046CEE700BFA2
:103BC0000280FFFF000000300082FF7F007E008047
:103BD0000000003404FF7FBF04FF7F3F002C00F093
:103BE000EB807A690021D8F82430C7F8109003EBF5
:103BF000820ED7F81C909300FD610EF104021FEDB8
:103C00000C6A7B61331D154656F821204808D8ED13
:103C10000C6ABBF1020F82F40002A2F5000207EE6B
:103C2000902A53F8212082F40002B8EEE77AA2F538
:103C3000000227EE067A07EE902A0AEB8002F8EEE1
:103C4000E77A27EE267A67EE867A82ED007A09EB2C
:103C500080024FEA800067EEA67AC2ED007A27D094
:103C60005EF8212082F40002A2F5000207EE902AFD
:103C700055F8212082F40002B8EEE77AA2F500029E
:103C800027EE067A07EE902ADCF80820F8EEE77AAD
:103C9000024427EE267A67EE867A82ED007A98ED66
:103CA0000C7ADCF80C2067EE877A0244C2ED007AC9
:103CB00002318C42A8D8D7F8109060466208BB69E0
:103CC0004946FD699847D8F82C307A69D8ED0D6AD5
:103CD0001A441FED407A1FED406A131D9246DFF82B
:103CE000C4C20022FB612B1DAB4ED9E9008E4EE011
:103CF000F4EEC67AF1EE10FAC0F2C580304645F80F
:103D000022000EEB0100D0ED007A66EEA77AF4EE09
:103D1000C77AF1EE10FA49D9F4EEC67AF1EE10FA4C
:103D2000C0F2BF803046BBF1020F43F822002AD018
:103D3000D9F808000844D0ED007A66EEA77AF4EED0
:103D4000C77AF1EE10FA35D9F4EEC67AF1EE10FA30
:103D5000C0F2AE8030464AF82200D9F80C00014487
:103D6000D1ED007A66EEA77AF4EEC77AF1EE10FA9A
:103D70001ED9F4EEC67AF1EE10FAC0F28B8031460D
:103D8000F86940F82210023294427FF6CEAB510817
:103D900008EB81008900D0ED007A66EEA77AF4EE98
:103DA000C77AF1EE10FAA3D86046A8E76046BAE7F2
:103DB0006146E5E76046CEE7224649466046BB6974
:103DC0009847FFF7B2BBC7F810B0002298ED0C6A15
:103DD000331DDFED726AD7F81CB0786956F82210EF
:103DE00007EE901A53F82210B8EEE77A07EE901A11
:103DF00051080232F8EEE77A27EE267A0AEB810EB6
:103E000094420BEB810167EEA67A27EE067A67EE05
:103E1000867A8EED007AC1ED007ADFD88300D7F87C
:103E200010B07B614DE61A46C7F810B098ED0C6AE9
:103E3000331DDFED5B6AD7F81CB0786936F92210C4
:103E400007EE101A33F9221007EE901AB8EEC77A6F
:103E500051080232F8EEE77A27EE267A0AEB810E55
:103E600094420BEB810167EEA67A27EE067A67EEA5
:103E7000867A8EED007AC1ED007ADFD88300D7F81C
:103E800010B07B6134E5F0EE675AFEEEE45A15EEB1
:103E9000900A34E7F0EE675AFEEEE45A15EE901AF7
:103EA0006EE7F0EE675AFEEEE45A15EE900A3AE736
:103EB000F0EE675AFEEEE45A15EE900A4BE767EE15
:103EC000A57AFDEEE77A17EE900A00B232E567EECA
:103ED000A57AFDEEE77A17EE900A00B23FE5F0EE24
:103EE000675AFEEEE05A15EE901A4CE6F0EE675A6D
:103EF000FEEEE05A15EE900A30E6F0EE675AFEEE5E
:103F0000E05A15EE900AFDE5F0EE675AFEEEE05A33
:103F100015EE900A0AE667EEA57AFDEEE77A17EE4F
:103F2000901A09B24AE567EEA57AFDEEE77A17EE38
:103F3000900A00B22CE5F0EE675AFEEEE45A15EE58
:103F4000902A1FE467EEA57AFDEEE77A17EE902A35
:103F500012B2FFF731BBF0EE675AFEEEE45A15EEEF
:103F6000902AFFF7FDBBF0EE675AFEEEE05A15EE21
:103F7000902AFFF79BBBF0EE675AFEEEE05A15EE73
:103F8000902AFFF780BB67EEA57AFDEEE77A17EE81
:103F9000902A12B2FFF724BB82FF7F00000000309E
:103FA000000000387E0080FF30B5184C154685B003
:103FB000046004F1080EEC460FC98EE80F00D4ED42
:103FC000047AF5EEC07A8CE80F00F1EE10FA1ADDF3
:103FD000B7EE006A94ED057A27EE277AC6EE276AD7
:103FE00084ED0D7AC4ED0C6A6DB1204640F8185F7F
:103FF00001F05AFF064903690020064A2162A262C5
:10400000E36005B030BD012005B030BD3C9D00240B
:10401000002000300000003000680830704700BF0A
:10402000B1F5807F03680A4628BF4FF48072B1F56E
:10403000807F9A6094BF002001207047006818308C
:1040400001F092BF30B5046883B008480D46A368FC
:10405000A26A216A9B00009004F1180001F026FF7B
:104060000020C4E9000503B030BD00BFED330008F7
:1040700010B4074B4FF07E51302400220320196109
:104080009C60D8605DF8044B5961C3E90622704713
:104090003C9D002438B50446104694F895301942EA
:1040A000237815D0032B19D094F89820002594F884
:1040B00096300A4025700B40A26001F0F8021B09FF
:1040C000F82A237100F08680092B73D9002038BDAF
:1040D000032BFBD8DFE803F0112A5102F7291CD08B
:1040E00094F98E2094F88E30002AEFDBE218013329
:1040F0000020917384F88E3038BD94F8942094F8A1
:10410000973022711940131F012B217305D994F8A0
:104110008F3003F0FD03012B45D10023237018B12C
:104120009022211D11F0BEF9012038BD94F897307E
:1041300094F894201940131F2173012B05D994F88A
:104140008F3003F0FD03012B29D1002323700028B9
:104150004CD09022211D11F0A5F994F89420012053
:10416000032AB4D1237B772BB1D90922783B227162
:1041700084F8942084F8913038BD94F8973094F8FE
:1041800094201940012A617300D181B118B19022A5
:10419000211D11F087F900230120237038BD02236F
:1041A00000202370DCE702230020237038BD0023A9
:1041B0002371EBE70122072B227019D101F00703CD
:1041C000A56084F88F30CBB90322184684F88E306E
:1041D000227038BD0823237194F8993000221940C9
:1041E000227084F8901000289AD19DE70120B7E74B
:1041F000082BF1D0284684F8943038BD4B077FF562
:1042000065AF8AE700220A2302700371704700BF7E
:10421000704700BF30B5D0F80C44ADF2044D3CB34C
:10422000D0F80824D0F804349A4224D0EC46002177
:10423000E6460131D0F80834D0F804249B1AC3F3C1
:104240000903002BF6D0D0F804345A1C0344C2F3FF
:1042500009021D79C0F80424D0F80824D0F80434E9
:104260000EF8015B9A42E4D1D0F810246046A047D2
:104270000DF2044D30BD0021EC46F5E7F8B5254CB4
:10428000E378002B43D00B680E46002B3FD0002173
:1042900005460F465B1A032B30D96B5C294413F09B
:1042A0000E0F2BD003F00F03234493F818382BB3D1
:1042B000013B481C50FA83F0D4F80434D4F80824A5
:1042C000013B9B1AC3F3090313B311F801CFD4F8D0
:1042D0000434D4F80824013B9B1AC3F30903002BD0
:1042E000F5D0D4F80834814203F101022344C2F32B
:1042F000090283F804C0C4F80824DDD1043720463D
:10430000FFF788FF3368BFB29F423946C2D3F8BD7A
:10431000E370F3E7749D0024CAB2114BA2F10102CD
:1043200010B5B2FA82F282B00E4C5209ADF8041008
:1043300004600120A4F80110114618702046009274
:104340000AF048FE00230A20E37001F0D3FE009A31
:104350002046054902B0BDE810400AF0C1BE00BFCA
:10436000BCC00024749D00247D42000803684FF007
:10437000010CC3F80C1483F803C0C3F81024704771
:104380000368D878704700BF0368D3F80424C3F8E3
:104390000824704730B54FF44072114C114BA4F80B
:1043A000012004F61805104A03F1100E04F6280C3B
:1043B000C4F838284FF60F02A4F83C28072284F8E6
:1043C0003E280FCB85E80F009EE80F008CE80F0019
:1043D0002046064A0649BDE8304010F045BC00BF03
:1043E000749D00248068010880707FF00000002424
:1043F0001142000800B583B04FF0000E4FF0030CDF
:104400004274ADF80410BDF8043080F810E0A0F854
:1044100002C0038003B05DF804FB00BF2DE9F04F3C
:10442000DFF81C8300258DB0C04C037008F14003F9
:104430004260074601920E46202229464046C4F8B3
:104440006831C4F86481CDE90255CDE90455CDE960
:104450000655CDE90855CDE90A5511F031F820226D
:10446000294604F5A170C4F83151C4F83551C4F897
:104470003951C4F83D5111F023F8019B84F848529A
:1044800084F830317A68002A6AD02B4604F5987196
:10449000454606F1100A9E46F01856F803B0E21899
:1044A0000EF1010ED0F80CC0D0F80490D0F80880BE
:1044B00044F803B0C2F80CC04FF0000CC2F80490EE
:1044C000C2F80880008A25F802CB10821AF803206F
:1044D00001F8012F002A70D07A684FF001001233E2
:1044E000724584F84802D7D84FF4802290489DF84E
:1044F000043008214FF000084FF00009C4F884315F
:104500000023C4E95B020122C4F8743184F88031CD
:10451000C4E95E2194F84812C4E96489A9B3C4F8D7
:104520009821002284F8813184F888313B78C4E9ED
:104530006722002B38D0012200200121013B84F8A2
:10454000A421C4E96C01082B30D8DFE813F0BD00CA
:10455000C200C700CC00D100D600DB00E100E800BB
:104560009DF804300121C4F87421C4F884314FF45B
:10457000802384F880216E4AC4E95B23082300224B
:10458000C4E95E130023C4E964230123002284F8F4
:104590008131002384F888310323C4F898313B78B3
:1045A000C4E96722002BC6D184F8A431614802F027
:1045B0004FFF034638B1FFBEFEE77A6812337245FB
:1045C0003FF66AAF90E702A95A48029303F09EF8BB
:1045D0008246002876D1042240F2FF710A90CDE98C
:1045E000081294F83021002A00F0F3804FF00608FA
:1045F0000AEBCA034FEACA0904EB43035B7C072BAF
:1046000007D8DFE803F0595C5653504D4A0407239E
:1046100007930FFA8AF6D14406EBC60604EB490964
:1046200004EB46077500384600F020FB99F810307F
:10463000042B00F3AA80022B00F3BD8000F0B980A8
:1046400004EB0A03002283F8202114F81630002B13
:1046500078D0022B00F08A80012B40F0B2807B786A
:10466000012B00F0B080002B334B18BF002305A9AD
:104670003048CDE9053802F017FB002840F0AC8047
:104680000AF1010A94F830315FFA8AFA534540F290
:10469000A0802A4B53F82A80AAE706230793B8E79D
:1046A00005230793B5E704230793B2E70323079392
:1046B000AFE702230793ACE700230793A9E70123A1
:1046C0000793A6E7FFBEFEE703224023C4E96A235F
:1046D0006CE707226023C4E96A2367E70F2280237F
:1046E000C4E96A2362E71F22A023C4E96A235DE7C5
:1046F0003F22C023C4E96A2358E77F22E023C4E9AC
:104700006A2353E7FF224FF48073C4E96A234DE71D
:1047100040F2FF124FF49073C4E96A2346E740F277
:10472000FF324FF4A073C4E96A233FE7B8A5002421
:104730000020024024A700240002B025046A0108DA
:10474000004000307B78062B37D0072B3DD0022B62
:104750004AD0032B4AD0002B4CD0012B48D0042B3D
:104760004AD0052B254B18BF002380E77B78042B0C
:1047700025D0052B2BD08BB3012B31D0022B31D080
:10478000032B1F4B18BF002371E70323043504EBF1
:104790000A0B4FF0000925448BF82031284609F117
:1047A000010900F063FA9BF8203104354B45F5DC34
:1047B0004BE70123EAE70223E8E7124B57E7124BE6
:1047C00055E7002353E7114B51E7114B4FE7114BCE
:1047D0004DE70DB0BDE8F08FFFBEFEE70E4B46E79C
:1047E0000E4B44E70E4B42E70E4B40E70E4B3EE7C5
:1047F0000E4B3CE70E4B3AE70E4B38E70000B84F44
:10480000002090360800900C1000C0102000F0141A
:104810008000501D000180210004002A0008302E75
:10482000001060320040C03A0080F03E0000524765
:10483000000021430000844B38B5094C40F2FF7260
:104840004FF0011104F5B675284602F00DFF94F8FB
:104850003021D4F864112846BDE8384002F078BC15
:10486000B8A50024064B0F29D3F8643198BF03EB99
:1048700041031B8800EE103ABBEEC80A704700BF28
:10488000B8A50024214B02689A4200D07047204A04
:1048900000232048D2F8D81030B51F4C41F0200139
:1048A00083B0C4F8D001092004F5E875C4E97503A4
:1048B0004FF48060C2F8D810D2F8D8204FF40061CD
:1048C000C4E9773094F8480202F02002C4F8E411F9
:1048D0004FF40051984201922846C4F8E811C4E907
:1048E0007C33019B14BF00234FF48073C4F8EC3178
:1048F00003F032F908B1FFBEFEE704F5B673C4F861
:10490000B851C4F8083203B030BD00BF00200240E7
:104910000044025840000240B8A50024014803F0BA
:1049200093BC00BF88A7002402682DE9F84F4B4BC9
:104930009A4201D0BDE8F88F494D95F84832002BD6
:10494000F8D095F83031002B77D0002405F10C0910
:1049500005F5A17605F59877A04613E003F001016F
:1049600017F811BCA9F1080000F05CFABBF1010FC7
:1049700025D895F83031013409F112090236A2B276
:1049800093422BD917F8012F002AF4D0D5F86431BF
:104990000021327833F81400D5F8683103EB0413A2
:1049A00023F81200338801339BB233805FFA83FA15
:1049B0003A789A42D2D88A46A6F80080D0E7CAF35D
:1049C0004001A9F1040000F02DFABBF1020FCAF377
:1049D0008001CED0484600F025FACAE7002395F8BA
:1049E0004802204909229842C5F8D8314FF4806026
:1049F000C5F8D011C5F8D4214FF400614FF400522E
:104A0000C5F8DC3108BF4FF48073C5F8E821C5E96B
:104A1000780100221448C5E97B32C5F8F42103F07F
:104A20009BF808B1FFBEFEE795F83021D5F8641178
:104A30000E48BDE8F84F02F08BBB0A4909224FF43B
:104A40008060C5F8D831C5E974124FF400614FF4A5
:104A50000052C5E97730C5E97912DAE70020024053
:104A6000B8A500244000024088A7002424A7002401
:104A7000704700BF10B592B0ADF804100180C9B204
:104A8000149C0B29C460C0E901233FD090F801C0F9
:104A9000BCF10F0F3AD8022A3FD0032A02D0012AD4
:104AA00000D000220E92012B02D0022B18BF00234F
:104AB000022C0F932CD0032C2AD0012C28D00023B9
:104AC0000A29109327D85C4A02EB812202610A2945
:104AD00014D8DFE801F0A39587796B5D4F4133254A
:104AE0000600564BD3F8E01041F48061C3F8E010A3
:104AF000D3F8E03003F480630C930C9B01230DA9E1
:104B0000104603FA0CF30D9303F0F0FE12B010BD43
:104B10000A291094D7D90022D8E711220E92C2E7B1
:104B2000464BD3F8E01041F40071C3F8E010D3F81D
:104B3000E03003F400730B930B9BDFE73F4BD3F89C
:104B4000E01041F48071C3F8E010D3F8E03003F4D2
:104B500080730A930A9BD1E7384BD3F8E01041F0F9
:104B60008001C3F8E010D3F8E03003F0800309932C
:104B7000099BC3E7314BD3F8E01041F04001C3F883
:104B8000E010D3F8E03003F040030893089BB5E74A
:104B90002A4BD3F8E01041F02001C3F8E010D3F81D
:104BA000E03003F020030793079BA7E7234BD3F8DC
:104BB000E01041F01001C3F8E010D3F8E03003F04A
:104BC00010030693069B99E71C4BD3F8E01041F0C5
:104BD0000801C3F8E010D3F8E03003F008030593B0
:104BE000059B8BE7154BD3F8E01041F00401C3F8A7
:104BF000E010D3F8E03003F004030493049B7DE756
:104C00000E4BD3F8E01041F00201C3F8E010D3F8E6
:104C1000E03003F002030393039B6FE7074BD3F8E5
:104C2000E01041F00101C3F8E010D3F8E03003F0E8
:104C300001030293029B61E70000025800440258FE
:104C400008B5012143780069994089B204F056F80B
:104C5000003818BF012008BD01230A4641780069C9
:104C600003FA01F189B204F04FB800BF8378022B38
:104C700030B504468FB037D0032B33D0012B31D061
:104C800000230A93E378012B2AD0022B28D000239B
:104C90000B93002320460C9301F080FE054620462E
:104CA00001F084FE23780990082B13D8DFE803F085
:104CB0001F3245586B7E91A40500594BD3F8E02074
:104CC00042F48072C3F8E020D3F8E03003F480733C
:104CD0000893089B09A9284603F008FE0FB030BDD1
:104CE0000B93D6E70A93CDE711230A93CAE74C4BFF
:104CF00009A92846D3F8E02042F00102C3F8E020D9
:104D0000D3F8E03003F001030093009B03F0EEFDC5
:104D10000FB030BD424B09A92846D3F8E02042F03D
:104D20000202C3F8E020D3F8E03003F0020301935D
:104D3000019B03F0DBFD0FB030BD394B09A92846BC
:104D4000D3F8E02042F00402C3F8E020D3F8E030CA
:104D500003F004030293029B03F0C8FD0FB030BDC3
:104D60002F4B09A92846D3F8E02042F00802C3F8E7
:104D7000E020D3F8E03003F008030393039B03F033
:104D8000B5FD0FB030BD264B09A92846D3F8E02069
:104D900042F01002C3F8E020D3F8E03003F0100333
:104DA0000493049B03F0A2FD0FB030BD1C4B09A976
:104DB0002846D3F8E02042F02002C3F8E020D3F8E0
:104DC000E03003F020030593059B03F08FFD0FB047
:104DD00030BD134B09A92846D3F8E02042F0400229
:104DE000C3F8E020D3F8E03003F040030693069BBD
:104DF00003F07CFD0FB030BD094B09A92846D3F85C
:104E0000E02042F08002C3F8E020D3F8E03003F065
:104E100080030793079B03F069FD0FB030BD00BF0F
:104E20000044025870B506460D4601F0B7FD044631
:104E3000304601F0BBFD2A1E0146204618BF012264
:104E4000BDE8704003F060BF0023122270B586B049
:104E5000CDE9022304930368032B01D804230593AF
:104E6000061D841D304601F099FD0546304601F0CF
:104E70009DFD034601A92846019303F037FD204616
:104E800001F08CFD034620461C4601F08FFD01A970
:104E900003462046019303F029FD06B070BD00BF14
:104EA000634A0368934210B58CB028D0614A93429C
:104EB00058D0614A934200F09480604A934201D0F6
:104EC0000CB010BD5E4C5F48D4F8E03043F00203F4
:104ED000C4F8E030D4F8E03003F002030A930A9BF0
:104EE000FFF7B2FFD4F8F43043F08003C4F8F43095
:104EF000D4F8F43003F080030B930B9BE0E7504CA5
:104F00005148D4F8E03043F00203C4F8E030D4F85C
:104F1000E03003F002030193019BFFF795FFD4F803
:104F2000E83000221F2043F400131146C4F8E83093
:104F3000D4F8E83003F400130293029BD4F8D8307D
:104F400043F00103C4F8D830D4F8D83003F001039B
:104F50000393039B02F04EFC1F200CB0BDE81040F1
:104F600002F086BC364C3948D4F8E03043F0800378
:104F7000C4F8E030D4F8E03003F080030493049BDD
:104F8000D4F8E03043F00203C4F8E030D4F8E03065
:104F900003F002030593059BFFF756FFD4F8E830B2
:104FA0000022212043F480031146C4F8E830D4F8ED
:104FB000E83003F480030693069BD4F8D83043F01E
:104FC0000103C4F8D830D4F8D83003F001030793B4
:104FD000079B02F00FFC21200CB0BDE8104002F04E
:104FE00047BC1B48FFF730FF154B00224820D3F881
:104FF000E840114644F40004C3F8E840D3F8E84020
:1050000004F400040894089CD3F8D84044F0010448
:10501000C3F8D840D3F8D83003F001030993099BB3
:1050200002F0E8FB48200CB0BDE8104002F020BCC4
:105030000054004000580040005C0040001C005834
:105040000044025890AA002408A80024E0A80024E4
:10505000B8A900242DE9F0431A4B87B000254FF082
:1050600010099E46EC46184BFF22E04667461A7030
:105070000EF118060EF13004CDE90055CDE90255C8
:10508000ADF80090BCE80F00CDE90455AEE80F0084
:105090009CE803000095ADF800908EE80300B8E8A6
:1050A0000F000FC69CE803000095ADF8009086E85D
:1050B00003000FCF0FC49CE8030084E8030007B08F
:1050C000BDE8F0833400002404A8002410B5EFF3F9
:1050D000108472B6084B1A78120602D504B962B66B
:1050E00010BD1B78D82205485BB202FB03001430C8
:1050F00003F0AAF8F2E700BF04A8002408A80024DF
:10510000014804F099BC00BF94A80024014804F0B1
:1051100093BC00BF6CA90024014804F08DBC00BF03
:1051200044AA00242DE9F0430F68D8243F4D85B0F0
:1051300007FB04F4032F05EB0403036040DCCB689A
:105140000E46012B3CD84DD04FF0D808B646DFF8BC
:10515000FC9008FB0758BEE80F00C446ACE80F00FF
:10516000DEF800300DF1100ECCF80030D8F808C091
:1051700099E80F000EE90F000EEB8703BCF1010F59
:1051800053F8103CC8F88C3031D0BCF1020F42D03B
:10519000BCF1000F35D0317C8C34D82300220120A3
:1051A0002C4403FB07534900C3E92602C3F89410BB
:1051B0002046C3E92822C3E92A2204F02FFA18B1B5
:1051C000012005B0BDE8F0830146204604F040FC14
:1051D0000028F5D10146204604F064FC003818BFD1
:1051E0000120EEE70B7C103B672BADD9E8E701F01F
:1051F0001BF90F4B98420CBF0E4B0F4BC8F8903069
:10520000C9E701F011F90A4B98420CBF0B4B0C4B4C
:10521000C8F89030BFE701F007F9054B98420CBF82
:10522000084B094BC8F89030B5E700BF08A8002428
:10523000000E27072D0FB0303211D0205F43906051
:105240008A62E030200BA0101A098010A0680108C3
:105250002DE9F041D0F8008082B00D4617461E4679
:1052600008F18C04204604F0EFFB2028FAD1D8F88E
:105270000C3073B96D002046089C33463A46A9B2FB
:10528000009404F021FA003818BF012002B0BDE8F4
:10529000F081089B32463946204604F0E9FAF2E7ED
:1052A000044B10221A7483F8E82083F8C02183F895
:1052B0009822704708A8002430B5002395B04FF419
:1052C0008071062204460B9306921393CDE90C13CA
:1052D000CDE90E33CDE9113301F0A8F807282BD022
:1052E00004F1100541F2883206A9284605F02CFB8E
:1052F00028B10123184684F85C3015B030BD022275
:10530000022306A92846CDE9002310220123CDE976
:10531000022300224FF48003CDE9042305224FF03D
:10532000807306926A460F9341F2883305F078FC49
:105330000028DED115B030BD0323012084F85C3095
:1053400015B030BD0000000070B50023A4B04FF0D0
:1053500080724FF480750446ADF806300D93CDE9A8
:1053600010320122CDE90E53CDE91223CDE91433D9
:10537000002943D0F02300F1100508AEADF8063047
:10538000C02341F2883231462846089305F0DCFA02
:1053900028B10123184684F85C3024B070BD41F276
:1053A00088320DF10601284605F038FB0346002837
:1053B000EFD105224FF480711E93284616924FF0CC
:1053C00080721B9321931F9202AA9FED1F7BCDE950
:1053D0001C13CDE922338DED027B9FED1D7B41F245
:1053E000883316A98DED047B9FED1B7B8DED067B2D
:1053F00005F016FC0028CCD124B070BD00F11005DA
:1054000008AE612341F2883231462846089305F000
:105410009BFA0028BDD141F288320DF106012846E1
:1054200005F07AFB0028B4D1BDF80630204623F001
:10543000780343F04003ADF80630FFF73DFF002846
:105440009ED0A6E7AFF3008000000000010000003E
:1054500010000000010000000000000000004000FB
:105460002DE9F04F00234FF4807501264FF080782E
:1054700004462DED028BABB08DF8073013932193CA
:10548000299314950E96CDF85C80CDE91533CDE9BE
:105490001863CDE91A33CDE92253CDE92433CDE9A0
:1054A000273306231C9300F0C1FF072808D004F11E
:1054B000100741F288321CA9384605F045FA40B180
:1054C0000123184684F85C302BB0BDEC028BBDE89C
:1054D000F08F4FF0020A4FF0020B4FF0050941F236
:1054E000883308AA1CA93846CDF89480CDF870906E
:1054F0009FED2D8BCDE908AB4FF0000A4FF4800BE8
:105500008DED0A8BCDE90CAB05F08AFB0028D7D1D5
:1055100041F2883238460EA905F016FA0028CFD19C
:10552000402341F288320DF1070138468DF80730EB
:1055300005F074FA0028C3D141F288330EA902AAFB
:105540003846CDF83890CDF85C809FED197B8DED15
:10555000048BCDE906AB8DED027B05F061FB0346C4
:105560000028ADD1CDF870904FF00109CDF89480AE
:105570004FF00008219308AA29931CA938462295C8
:10558000CDE92333CDE9273341F288338DED0A8B02
:10559000CDE90CABCDE9088905F042FB002893D09A
:1055A000304684F85C608FE71000000001000000C6
:1055B00040000000400000002DE9F043624CA3B021
:1055C0000D46046000F032FF072800F0A98028682B
:1055D00023466968AA6807C31E46AB8926F8043BC0
:1055E0003046257B677B05F091F9E0B9574B012DDB
:1055F0004FF00108E061236114BF4FF480134FF4B2
:105600000003C4E9058893FAA3F3B3FA83F34FF4D4
:105610008079013BC4F82490C4E90B003046236232
:1056200005F008F938B10122134684F85C201846C9
:1056300023B0BDE8F08366230B90139041F28832CB
:1056400006A90693CDE90C90CDE90E00CDE9110035
:10565000304605F079F90028E5D1992341F28832E6
:1056600006A93046069305F06FF90028DBD1052323
:105670001C9019906A4614934FF08073219014A9DE
:105680001D9341F288339FED2A7BCDE91A90CDE935
:105690001F008DED007B9FED287B30468DED027B5A
:1056A0009FED277B8DED047B05F0BAFA0028BAD177
:1056B00029462046FFF748FE0028B4D12046FFF7D0
:1056C000CFFE03460028AED1002FB0D1189330464C
:1056D0000027002606AA14A9CDF86890CDE91F334B
:1056E000EB2314934FF440631B934FF40053179331
:1056F0004FF440431C93A0231693062319934FF0B5
:10570000805321934FF04073CDE906671D9305F058
:10571000FFFA034600288AD0434684F85C8086E777
:1057200001230322184684F85C2023B0BDE8F083EF
:105730000000000001000000100000000100000057
:10574000000000000000400068AB00240050005240
:105750002DE9F04F8FB0414B0024026800AF9A4210
:105760007C63C7E90944C7E90B4403D03C37BD4615
:10577000BDE8F08F3A4B40F609213A48EB46D3F8A2
:10578000D42007F11C0607F1220A4FF0020942F467
:1057900080424FF00308C3F8D420D3F8D42002F499
:1057A0008042BA60BA68D3F8E02042F04002C3F801
:1057B000E020D3F8E02002F04002FA60FA68D3F863
:1057C000E02042F02002C3F8E020D3F8E02002F00D
:1057D00020023A613A69D3F8E02042F01002C3F89F
:1057E000E020D3F8E02002F010027A617A69D3F861
:1057F000E02042F00202C3F8E020D3F8E030F86184
:1058000003F002033984BB61174B7B60BB697B6883
:1058100053F8040F7B6001F0C1F87B6805461868F7
:1058200001F0C4F816F8013B786207F1240128461C
:10583000C7F830807B63C7E90A9403F057F85645F0
:10584000E5D100225C20114601F0D4FF5C2002F07B
:105850000FF83C37DD46BD46BDE8F08F00500052E2
:10586000004402580A0A0909C4AB0024114B02681B
:105870009A4200D07047104A70B5D2F8D4300F4C1D
:1058800023F4804304F11806C2F8D43054F8040F0E
:1058900001F084F80546206801F088F801462846A2
:1058A00003F064F9B442F1D15C20BDE8704001F02E
:1058B000EDBF00BF0050005200440258C4AB0024AA
:1058C000014805F0B1BA00BF78AB0024084B1A1D9F
:1058D000981D03F1080110B49C1C9A6603F10A029A
:1058E000C3E91834C3E91B015DF8044B5A677047DC
:1058F00068AB002438B5036871B9026A00F1280565
:1059000000F5AC74012A0CBF002140218BBB1D4B5C
:105910005722C0F858310DE0426A00F1C00500F589
:10592000E874012A0CBF00214021EBB1164B5A222A
:10593000C0F8D03100232046C4E901214FF4805241
:105940004FF48061636262614FF48042C4E90331C5
:105950004FF48073C4E906234FF40033236202F04E
:10596000FBF858B1FFBEFEE7084B5822C0F8D03113
:10597000E0E7074B5922C0F85831DBE7C5E920447E
:10598000A56338BD100002407000024028000240AC
:10599000580002402DE9F043821D05468BB0031DDF
:1059A00005F10A010830CDE9052305F10C02AB69C8
:1059B000CDE907010992002B3DD0EB69B3FA83F8DA
:1059C0004FEA58180123022205AE0AAF4FF006092C
:1059D0000393CDE9012356F8044B2B7922789342A7
:1059E00016D02B68F3B1012B02D1F2B10A23049334
:1059F000204600F0DBFF03462046009300F0CEFF78
:105A0000694602F073FFBE42E5D10BB0BDE8F083FA
:105A1000697963789942E4D1B8F1000FF3D02B682B
:105A2000002BE0D1CDF81090E2E76378022B14BF91
:105A30000A230823DBE74FF00108C3E7534A036852
:105A4000934230B505468BB055D02032934252D0A8
:105A50004F4A934204D02032934201D00BB030BD64
:105A60004C4C4D48D4F8E03043F00103C4F8E0302A
:105A7000D4F8E03003F001030593059BD4F8E0303F
:105A800043F00803C4F8E030D4F8E03003F0080332
:105A90000693069BD4F8E03043F04003C4F8E030AE
:105AA000D4F8E03003F040030793079BD4F8F030BC
:105AB00043F40003C4F8F030D4F8F03003F40003EA
:105AC0000893089BFFF766FFD4F8D830296843F0A5
:105AD00001032F4A3048C4F8D830891AD4F8D83096
