:020000040800F2
:1000000000000220010A0008FD090008BD64000884
:10001000FD090008FD090008FD09000800000000B6
:10002000000000000000000000000000FD090008C2
:10003000FD09000800000000FD09000841640008F7
:10004000FD090008FD090008FD090008FD09000878
:10005000FD090008FD090008FD090008FD09000868
:10006000FD090008FD090008FD09000849600008B5
:1000700055600008AD4D0008616000086D60000823
:100080008111010879550008FD090008FD090008E3
:10009000FD090008FD090008FD090008FD09000828
:1000A000FD090008FD090008FD090008FD09000818
:1000B00099050108A5050108B1050108AD5500081D
:1000C000FD090008B9550008FD09000809FE0008EF
:1000D00015FE0008B50F0108E10F01081510010811
:1000E000FD090008FD09000800000000FD090008E6
:1000F000FD090008FD090008FD090008FD090008C8
:10010000FD090008FD090008BD05010821FE0008E1
:10011000491001087D100108FD090008FD090008CB
:10012000FD090008FD09000845FE000879FE0008E9
:10013000B5110108FD090008FD090008FD090008C6
:1001400000000000000000000000000000000000AF
:10015000FD090008FD090008FD090008B1100108AB
:10016000C5550008FD0900085164000875640008C1
:10017000FD09000899640008FD090008FD09000850
:10018000FD090008FD090008E51001081911010822
:100190002DFE000839FE0008FD090008FD090008D1
:1001A000FD090008FD090008FD090008FD09000817
:1001B000695D0008FD090008FD090008FD09000847
:1001C000FD090008FD090008C5F50008D1F5000883
:1001D000FD090008DDF50008FD090008FD0900081B
:1001E000FD090008FD090008FD090008FD090008D7
:1001F000FD090008FD090008FD090008FD090008C7
:10020000FD090008FD090008FD090008FD090008B6
:10021000FD090008FD090008FD090008FD090008A6
:10022000FD090008FD090008FD09000800000000A4
:10023000FD090008FD09000800000000FD09000894
:10024000FD090008FD090008FD090008FD09000876
:10025000FD090008FD090008FD090008FD09000866
:10026000FD090008FD090008FD090008FD09000856
:10027000FD090008FD0900084D11010800000000FB
:10028000FD090008FD090008FD0900080000000044
:0802900000000000FD09000858
:1002A00010B5054C237833B9044B13B10448AFF3B0
:1002B00000800123237010BD780600240000000098
:1002C000F084010808B5034B1BB103490348AFF3A1
:1002D000008008BD000000007C060024F0840108B6
:1002E00001F0FF01102A2BDB10F0070F08D010F8E7
:1002F000013B013A8B422DD010F0070F42B3F6D1EB
:10030000F0B441EA012141EA014122F007047FF003
:1003100000070023F0E80256083C85EA010586EA5A
:10032000010685FA47F5A3FA87F586FA47F6A5FA96
:1003300087F68EB9EED1F0BC01F0FF0102F00702A2
:1003400032B110F8013B013A83EA010313B1F8D14D
:100350000020704701387047002D06BF354603382E
:10036000073815F0010F07D1013015F4807F02BF67
:10037000013015F4C03F0130F0BC0138704700BFB8
:1003800081F0004102E000BF83F0004330B54FEA46
:1003900041044FEA430594EA050F08BF90EA020FB3
:1003A0001FBF54EA000C55EA020C7FEA645C7FEA46
:1003B000655C00F0E2804FEA5454D4EB5555B8BF69
:1003C0006D420CDD2C4480EA020281EA030382EADA
:1003D000000083EA010180EA020281EA0303362D6C
:1003E00088BF30BD11F0004F4FEA01314FF4801C3F
:1003F0004CEA113102D0404261EB410113F0004F51
:100400004FEA03334CEA133302D0524263EB430307
:1004100094EA050F00F0A780A4F10104D5F1200EA5
:100420000DDB02FA0EFC22FA05F2801841F1000100
:1004300003FA0EF2801843FA05F359410EE0A5F1D4
:1004400020050EF1200E012A03FA0EFC28BF4CF005
:10045000020C43FA05F3C01851EBE37101F00045BB
:1004600007D54FF0000EDCF1000C7EEB00006EEBC8
:100470000101B1F5801F1BD3B1F5001F0CD3490852
:100480005FEA30004FEA3C0C04F101044FEA4452A9
:1004900012F5800F80F09A80BCF1004F08BF5FEA30
:1004A000500C50F1000041EB045141EA050130BD10
:1004B0005FEA4C0C404141EB0101013C28BFB1F522
:1004C000801FE9D291F0000F04BF01460020B1FA6D
:1004D00081F308BF2033A3F10B03B3F120020CDA40
:1004E0000C3208DD02F1140CC2F10C0201FA0CF01E
:1004F00021FA02F10CE002F11402D8BFC2F1200C83
:1005000001FA02F120FA0CFCDCBF41EA0C01904038
:10051000E41AA2BF01EB0451294330BD6FEA040481
:100520001F3C1CDA0C340EDC04F11404C4F120026C
:1005300020FA04F001FA02F340EA030021FA04F37E
:1005400045EA030130BDC4F10C04C4F1200220FAD5
:1005500002F001FA04F340EA0300294630BD21FA13
:1005600004F0294630BD94F0000F83F4801306BFD9
:1005700081F480110134013D4EE77FEA645C18BFCD
:100580007FEA655C29D094EA050F08BF90EA020F64
:1005900005D054EA000C04BF1946104630BD91EA5C
:1005A000030F1EBF0021002030BD5FEA545C05D15F
:1005B0004000494128BF41F0004130BD14F580049E
:1005C0003CBF01F5801130BD01F0004545F0FE4112
:1005D00041F470014FF0000030BD7FEA645C1ABF47
:1005E000194610467FEA655C1CBF0B46024650EA7E
:1005F000013406BF52EA033591EA030F41F40021AA
:1006000030BD00BF90F0000F04BF0021704730B52F
:100610004FF4806404F132044FF000054FF0000104
:1006200050E700BF90F0000F04BF0021704730B5C5
:100630004FF4806404F1320410F0004548BF40429A
:100640004FF000013EE700BF42004FEAE2014FEAEF
:1006500031014FEA02701FBF12F07F4393F07F4FCA
:1006600081F06051704732F07F4208BF704793F0CD
:100670007F4F04BF41F40021704730B54FF46074E0
:1006800001F0004521F000411CE700BF50EA0102E3
:1006900008BF704730B54FF000050AE050EA01028C
:1006A00008BF704730B511F0004502D5404261EBFC
:1006B00041014FF4806404F132045FEA915C3FF43D
:1006C000D8AE4FF003025FEADC0C18BF03325FEADA
:1006D000DC0C18BF033202EBDC02C2F1200300FA8B
:1006E00003FC20FA02F001FA03FE40EA0E0021FAB0
:1006F00002F11444BDE600BF53B94AB9002908BF4E
:1007000000281CBF4FF0FF314FF0FF3000F074B9EC
:10071000ADF1080C6DE904CE00F006F8DDF804E058
:10072000DDE9022304B070472DE9F047089D044637
:100730008E46002B4DD18A42944669D9B2FA82F294
:1007400052B101FA02F3C2F1200120FA01F10CFAD0
:1007500002FC41EA030E94404FEA1C48210CBEFB08
:10076000F8F61FFA8CF708FB16E341EA034306FB91
:1007700007F199420AD91CEB030306F1FF3080F020
:100780001F81994240F21C81023E63445B1AA4B26D
:10079000B3FBF8F008FB103344EA034400FB07F70F
:1007A000A7420AD91CEB040400F1FF3380F00A8150
:1007B000A74240F207816444023840EA0640E41B45
:1007C00000261DB1D4400023C5E900433146BDE8F1
:1007D000F0878B4209D9002D00F0EF800026C5E993
:1007E000000130463146BDE8F087B3FA83F6002EAB
:1007F0004AD18B4202D3824200F2F980841A61EB23
:10080000030301209E46002DE0D0C5E9004EDDE740
:1008100002B9FFDEB2FA82F2002A40F09280A1EB28
:100820000C014FEA1C471FFA8CFE0126200CB1FB7D
:10083000F7F307FB131140EA01410EFB03F0884276
:1008400008D91CEB010103F1FF3802D2884200F203
:10085000CB804346091AA4B2B1FBF7F007FB101195
:1008600044EA01440EFB00FEA64508D91CEB040433
:1008700000F1FF3102D2A64500F2BB800846A4EB8E
:100880000E0440EA03409CE7C6F12007B34022FA79
:1008900007FC4CEA030C20FA07F401FA06F31C43A8
:1008A000F9404FEA1C4900FA06F3B1FBF9F8200CB5
:1008B0001FFA8CFE09FB181140EA014108FB0EF0FB
:1008C000884202FA06F20BD91CEB010108F1FF3A4B
:1008D00080F08880884240F28580A8F10208614457
:1008E000091AA4B2B1FBF9F009FB101144EA014165
:1008F00000FB0EFE8E4508D91CEB010100F1FF3410
:100900006CD28E456AD90238614440EA0840A0FBA7
:100910000294A1EB0E01A142C846A64656D353D07D
:100920005DB1B3EB080261EB0E0101FA07F722FAA1
:1009300006F3F1401F43C5E9007100263146BDE8CA
:10094000F087C2F12003D8400CFA02FC21FA03F32D
:10095000914001434FEA1C471FFA8CFEB3FBF7F0AE
:1009600007FB10360B0C43EA064300FB0EF69E42D3
:1009700004FA02F408D91CEB030300F1FF382FD26C
:100980009E422DD9023863449B1B89B2B3FBF7F614
:1009900007FB163341EA034106FB0EF38B4208D9ED
:1009A0001CEB010106F1FF3816D28B4214D9023E2E
:1009B0006144C91A46EA004638E72E46284605E74C
:1009C0000646E3E61846F8E64B45A9D2B9EB02081D
:1009D00064EB0C0E0138A3E74646EAE7204694E7AD
:1009E0004046D1E7D0467BE7023B614432E73046E0
:1009F00009E76444023842E7704700BFFEE700BFE2
:100A00000B480C4A904203D0121A0B4914F0DEFD39
:100A10000A480B4A904203D0121A002114F0E4FD58
:100A200005F0A4FF14F0A6FD02F0CCF9FEE700BF2C
:100A3000000000247806002424850108780600249C
:100A4000B4FD0024704700BF704700BF704700BF6F
:100A5000704700BF49424FF480621030C9B214F0B1
:100A6000C3BD00BF704700BF402070478020704763
:100A7000704700BF10B504464FF4826114F08FF93F
:100A8000204610BDB9B30144F0B51546A5B002F13A
:100A90000807441E4E1E01E0A6422AD014F8011F8A
:100AA0006A46384603F0F6FC0028F5D0D5F8A8C011
:100AB00090226946D5E92B03C31A00F1010E00EB21
:100AC000C00048BF63440CF1FF3C9C45E4D0D5F81E
:100AD000A430C5F8ACE003EB001014F077FDD5E9C5
:100AE0002A239342A3EB020328BFC5F8AC30A642E9
:100AF000D4D125B0F0BD70472DE9F0472DED028B24
:100B000084B000250C4690466E46E9B20135974800
:100B100004F0F0F8042DA6EC010AF6D1944DDDEDB9
:100B2000000AD5ED007A9FED937A70EEE77AF0EE49
:100B3000E77AF4EEC77AF1EE10FA00F36182DFF89B
:100B40007892DDED017A95ED017ADFED8A6A37EE74
:100B5000C77AB0EEC77AB4EEE67AF1EE10FA00F397
:100B6000B880854E9DED027AD5ED027ADFED816A7F
:100B700077EE677AF0EEE77AF4EEE67AF1EE10FAC5
:100B800000F395807D4F9DED037AD5ED037ADFED7F
:100B9000796A77EE677AF0EEE77AF4EEE67AF1EECC
:100BA00010FA00F30E8299ED008AB3EE046A744DD8
:100BB000B7EE007ADFF80492D7ED005AD5ED007A4F
:100BC00099ED005ADFED6F6AA5EE258A88FE068A48
:100BD00088FE668A78EE677AF0EEE77AF4EEC77AF6
:100BE000F1EE10FA22DC684FD6ED007AD7ED006AFC
:100BF0009FED667A77EEE67AF0EEE77AF4EEC77A62
:100C0000F1EE10FA13DCDFF8B8A1DAF80030002BAF
:100C100021DA5F4D5F4F604E3378032B00F2FF8186
:100C2000DFE813F0890190018C006700564FB0EEA9
:100C3000480A5A4814F004F896ED000A574814F090
:100C400063F8DFF87CA1336885ED008A3B60DAF851
:100C50000030002BDDDB07EE903A9FED517AF2EE8B
:100C6000080A4B4DF8EEE77A4A4FB0EE000A77EEED
:100C7000C77AC7EEA00A14F0C7F9DFED4A7A95EDFE
:100C8000007A494B20EE270AC0EE077A85ED010A6B
:100C900097ED007AC5ED027AD3ED007A20EE270AAF
:100CA000C0EE077A87ED010AC7ED027AB3E79FED40
:100CB0003F6ADFED3F6AF0EE467A304F85ED027A0B
:100CC000E7EE267AC7FE867AC7FEE67AC7ED007A97
:100CD00059E79FED367AF7EE006A274EC5ED017AA7
:100CE00077EE877AC7FE877AC7FEE67AC6ED007A86
:100CF00038E7304813F002FEDFED247AF0EE406A68
:100D0000B4EEE70AF1EE10FA00F231819FED270A06
:100D10000023F0EE406A33704FF0FF3389ED000A94
:100D2000CAF80030C5ED046AC7ED046AB8F1000FD7
:100D300011D104B0BDEC028BBDE8F087F7EE007A6C
:100D4000F0EE676AC9ED007AC5ED046AC7ED046A82
:100D5000B8F1000FEDD008F1FF380026DFF864A0ED
:100D60004FEA5808DFF83490A8E000BF600B002479
:100D70000C0000240AD7A33BE09C0024F40A0024C2
:100D80000800002400A08C46040000240AD7233C5D
:100D9000380000244C00002494060024FC0A00249F
:100DA00000008A420000DC43200000240000000014
:100DB00000606A46BC0A002498060024F80A002451
:100DC0001C000024CC9C0024F1EE10FAF0EE005A36
:100DD000A8BF37EE677AFFEE007AB4EEC76A85EDFA
:100DE000037AE7EE257AF1EE10FA00F3DD80B7EE34
:100DF000005A75EE465AF4EEC75AF1EE10FA0DD5C8
:100E000037EE457AC7EE065AB0EE657AA5EEA57ABA
:100E100075EE875A75EE855A77EEE57A97ED037A87
:100E2000F7EE005A97ED026A26EEA70AF0EE006A86
:100E300076EE077ABFEE007AF4EEE57AF1EE10FA7C
:100E4000A8BF77EEE57AB4EEE76AC7ED037AA7EEBE
:100E5000A67AF1EE10FA00F39A80F7EE005A75EEDA
:100E6000C66AF4EEE76AF1EE10FA0DD577EEE57A90
:100E7000C7EE866AF0EE667AE6EEA67A76EEA76AA6
:100E800076EEA56A37EE667AF0EE407A97ED046A60
:100E9000F6EE006AE6EE077A27EEA60A6148083405
:100EA00013F06AFED9F83030464544F8083C44F85F
:100EB000043C3FF43EAFD5ED046A013695ED026A7D
:100EC000F7EE007A95ED037A9AF8003036EE077A5D
:100ED000B4EEE77A002B7FF477AFF1EE10FABFEEB5
:100EE000000AF0EE005AA8BF37EE677AF0EE407ABB
:100EF000B4EEC76A85ED037AE7EE257AF1EE10FAD3
:100F000038DCB7EE005A75EE465AF4EEC75AF1EEE9
:100F100010FA0DD537EE457AC7EE065AB0EE657A6F
:100F2000A5EEA57A75EE875A75EE855A77EEE57AC5
:100F300026EEA70AB2E7DFED3C7AF0EE676AC9ED6C
:100F4000007A01E7394813F0D9FCDFED397AF0EE89
:100F5000406AB4EEE70AF1EE10FA08DBB7EE000AD9
:100F600002233370F0EE406A89ED000AECE6C9ED29
:100F7000006AE9E687EE065AB7EE006A25EE457A82
:100F8000A5EE257A37EE467A77EEC77AD0E7C7EE38
:100F9000865AB7EE006A65EEE57AE5EEA67A77EE58
:100FA000C67A37EE677A6FE787EE065AB7EE006AC1
:100FB00025EE457AA5EE257A37EE467A77EEC77AA2
:100FC0002CE7DFED1C6AB0EE000ADFED1B5AF0EEF5
:100FD000667ADFED1A0A1A4B9FED1A6AE7EE257A58
:100FE00085ED037AC7FEA67AC7FEC67AC7EEA00AC9
:100FF000C3ED007A14F008F8134B83ED000AD2E534
:101000009FED120AC5ED000A13F0FEFFF3EE047A1D
:10101000DFF83C9020EE270A89ED000A91E5D9ED32
:10102000006A91E6FC0A002400000000BC0A0024CB
:10103000A4707D3F000048C20000C84200009644F2
:101040009C060024000048422000002400007A444E
:10105000980600242DE9F04F4FF0B00885B0054602
:1010600000F1080700F18F0600F28F494FF47A7BF8
:101070004FF0000A297B022303AA3846CDF800B0BE
:10108000A6F180048DF80CA08DF80D8004F036FBDD
:10109000297B022303AA3846CDF800B08DF80CA0B6
:1010A0008DF80DA004F02AFB4FF0100C297B0223D1
:1010B00003AA3846CDF800B08DF80CA08DF80DC00D
:1010C00004F01CFB4FF47A7014F801CF4FF0400E7F
:1010D000297B0223009003AA38468DF80CE08DF896
:1010E0000DC004F00BFBB442ECD104F1800608F112
:1010F00001084E455FFA88F8B8D105B0BDE8F08F19
:101100002DE9F04F85B0A1F1200504AC9DF83870B1
:10111000009104E90C00EBB25E2B00F295800368AD
:1011200080465D4ADB689DF8084093429DF809605F
:1011300040F094808020B8F804302344834200F3C8
:101140008380D8F80030554A9B68934240F08880ED
:101150004020B8F8062093190192834274DC002ED7
:1011600000F0898006FB05F56FF00040039B964672
:1011700028442E44B8F804A003EB4000023B03EBE4
:10118000460B30F8026FBCB30EF007034FF0010CB2
:101190004FEADE0251460CFA03FC0AF110034FFA43
:1011A0008CFC03EBC21200236FEA0C0942440EE0F0
:1011B0007F2907D8BEF13F0F04D815789FB14CEABC
:1011C000050515700133013201319C4214D006FA35
:1011D00003F52D04ECD47F29F4D8BEF13F0FF1D8EC
:1011E0001578002FEBD0013309EA050501320131F2
:1011F0009C4202F8015CEAD158450EF1010EC0D1C3
:10120000D8F8003054442449DA68A4B28A422DD177
:10121000802084421CD29B68204AA8F80440934254
:1012200021D14020019B834207D3D8F800301B4ACC
:101230009B68934229D13F230193DDE90003A8F87D
:10124000063005B0BDE8F08F002005B0BDE8F08F96
:10125000DA6811498A4211D17F24DCE798476AE7AE
:101260004046984775E740469847DBE74046904739
:10127000D8F80030CDE7B8F804A0C1E74046904761
:101280000138D8F8003084B2C5E7404698470138A5
:1012900083B20193D1E700BF6D0A0008690A000814
:1012A0007F291ED83F2A1CD86BB1D3084FF0010C00
:1012B00002F0070201EBC3130CFA02F2C1180B7C17
:1012C0001A430A747047D3084FF0010C02F007026A
:1012D00001EBC3130CFA02FCC1180A7C22EA0C02CF
:1012E0000A7470472DE9F04F83B05C1A0C9E002CF5
:1012F0009DF83490A6EB0208B8BF6442B8F1000F25
:10130000B8BFC8F100088B428CBF4FF0010A4FF004
:10131000FF3A9642A4EB080C51D84FF0FF357F2BD3
:10132000019512D83F2E10D8F50806F0070E0127B8
:1013300003EBC5150544B9F1000F47D007FA0EF7C6
:1013400095F810E047EA0E072F74964201D18B42C0
:1013500029D0C8F100077F2914D83F2A12D8D50810
:1013600002F0070B4FF0010E01EBC5150544B9F172
:10137000000F1BD00EFA0BFE95F810B04EEA0B0EC4
:1013800085F810E0B7EB4C0F4FEA4C0502DAACEBF6
:10139000080C5144AC4202DD019DA4442A44994208
:1013A000D9D19642D7D103B0BDE8F08F0EFA0BFB2E
:1013B00095F810E02EEA0B0E85F810E0E2E7012523
:1013C0007F2B0195C5D83F2EAED9C2E707FA0EFE96
:1013D0002F7C964227EA0E072F74B8D0B9E700BFDA
:1013E0002DE9F04F2DED068B83B01F4680460D464C
:1013F0009DF8503016460193139B002BC0F22182BA
:10140000129A134406EE103ADDED127AB8EEC66B6E
:101410009FEDCD4BB8EEE77B9FEDCD5B27EE047BD8
:1014200026EE046B87EE050B86EE05ABF7EEC08B60
:10143000B0EE680A13F0B8FC07EE907AB7EECAABCC
:10144000F8EE679AB0EE408AB0EE680A13F070FFCB
:1014500060EE698AB0EE4A0A13F0A6FCB0EE409A3C
:10146000B0EE4A0A13F064FF20EE690A29EE888A7A
:1014700029EE899A70EE687AF0EE006A39EE487AC1
:1014800067EEA77AE7EE077AF4EEE67AF1EE10FA65
:1014900006D5139BB42B40F396804FF0010901E071
:1014A0004FF00009012478424FF0000C0095E31B37
:1014B000214627462246A340B9F1000F6AD1424295
:1014C00006EE90CACCF1000107EE102AB8EEE66AEB
:1014D00007EE901A06EE900AB8EEC77A139A66EEF7
:1014E000084AF8EEE77AB42A27EE284AF8EEE66AC8
:1014F00067EE885A74EEC43A26EEA85A26EE096AB8
:1015000066EE806A67EE897A27EE007AF5EEC03AD9
:1015100040F3F280F1EE10FA00F17F8176EE473A67
:1015200074EEC54AF5EEC03AF1EE10FAF5EEC04A97
:10153000CCBF01220022F1EE10FA00F1778136EEE5
:10154000666A35EEC55AB5EEC06AF1EE10FAB5EE30
:10155000C05ACCBF01210021F1EE10FA00F16F81D9
:1015600077EEE66AF5EEC06AF1EE10FACCBF01271D
:10157000002775EEC45AF5EEC05AF1EE10FA00F1EC
:10158000478177EEC77AF5EEC07AF1EE10FACCBF5C
:1015900001240024002A40F08A80002964D1BFB9C8
:1015A000C4BB9C4558DB0CF1010C03EB4C0E1CEB4F
:1015B000000F0EF1010E00F0C08098424FDB734621
:1015C00000287FF779AF03B0BDEC068BBDE8F08F44
:1015D000009DA6EB0C0E00EB050ABAF17F0FDFD8D9
:1015E000BEF13F0FDCD84FEADE0B019D0AEBCB1AB0
:1015F000002D00F0B1800EF0070BC2444FF0010E39
:101600000EFA0BFE9AF810B04EEA0B0E8AF810E0B4
:10161000002CC6D0009DA6EB0C0EA5EB000ABAF17B
:101620007F0FBED8BEF13F0FBBD84FEADE0B019D46
:101630000AEBCB1A002D00F0AE800EF0070BC2446F
:101640004FF0010E9C450EFA0BFE9AF810B04EEAD0
:101650000B0E8AF810E0A6DA98429E46AFDA013007
:101660000EEB40030133ABE7009D0CEB060E00EBE5
:10167000050ABAF17F0F92D8BEF13F0F8FD84FEA1B
:10168000DE0B019D0AEBCB1A002D73D00EF0070B79
:10169000C2444FF0010E0EFA0BFE9AF810B04EEA5B
:1016A0000B0E8AF810E0002F3FF47AAF90E7009D10
:1016B0000CEB060EA5EB000ABAF17F0F3FF66DAFFB
:1016C000BEF13F0F3FF669AF4FEADE0B019D0AEB1B
:1016D000CB1A002D6DD00EF0070BC2444FF0010E57
:1016E0000EFA0BFE9AF810B04EEA0B0E8AF810E0D4
:1016F00000293FF454AFB7E7F1EE10FA7ED44A4622
:1017000074EEC54AF5EEC04AF1EE10FA6CD4002131
:1017100035EEC55AB5EEC05AF1EE10FA5AD400278C
:1017200075EEC45AF5EEC05AF1EE10FA3FF529AF46
:101730000024002A3FF431AFB9E798428FDB002341
:101740003BE700BFAFF300807A008BFCFA21094031
:101750000000000000806640C2444FF0010B0EF014
:10176000070E0BFA0EFE9AF810B02BEA0E0E8AF84E
:1017700010E015E7C2444FF0010B0EF0070E0BFA14
:101780000EFE9AF810B02BEA0E0E8AF810E0002F29
:101790003FF406AF1CE7C2444FF0010B0EF0070EFA
:1017A0000BFA0EFE9AF810B02BEA0E0E8AF810E033
:1017B000F7E6C2444FF0010B0EF0070E0BFA0EFED7
:1017C0009AF810B02BEA0E0E8AF810E000293FF4C8
:1017D000E6AE49E777EEE66AF5EEC06AF1EE10FA9A
:1017E000CCBF012700279BE736EE666AB5EEC06ADC
:1017F000F1EE10FACCBF0121002189E776EE473ADD
:10180000F5EEC03AF1EE10FACCBF0122002277E7E4
:101810000124002A3FF4C1AE49E774EEC54A012213
:10182000F5EEC04AF1EE10FA7FF589AE35EEC55AF5
:101830000121B5EEC05AF1EE10FA7FF591AE012705
:1018400097E6DDE91223134406EE102A1293139B48
:101850005B421393D8E500BF2DE9F04F89B008AC87
:101860009DF84870019104E90C000B78002B00F002
:10187000AB801A469DF818809DF8193006464546FB
:1018800090460393079B0593A8F12004E3B25E2BD7
:1018900000F29E8033685E4ADB68934240F09B8092
:1018A0008020B3882B44834200F392803368594AE6
:1018B0009B68934240F092804020F188039A029105
:1018C0008B18834200F38480002A00F0918002FB91
:1018D00004F46FF00049059BA1441444B6F804B029
:1018E00003EB4909023BCDF8108003EB44030C469F
:1018F0009A4639F802CFA5B304F007034FF0010E62
:10190000E20859460EFA03FE0BF110034FFA8EFE61
:1019100003EBC21200236FEA0E0832440DE07F2968
:1019200006D83F2C04D8107897B14EEA000010700A
:10193000013301320131AB4213D00CFA03F0000441
:10194000EDD47F29F4D83F2CF2D81078002FECD0BA
:10195000013308EA000001320131AB4202F8010C08
:10196000EBD1D14504F10104C3D1DDF81080326818
:101970000BEB05042649D368A4B28B4234D18020F6
:10198000844204D3D36822498B423AD17F2493689E
:10199000204AB480934224D14020029B834206D344
:1019A00033681C4A9B68934225D13F230293029BD4
:1019B000F380019B1878404507D113F8018F0193FC
:1019C000B8F1000F7FF460AF002009B0BDE8F08FE0
:1019D0004FF00008EDE73046984762E730469847F9
:1019E0006BE730469847D8E7304698473268C7E7F4
:1019F000B6F804B0BBE730469847013883B202938B
:101A0000D5E7304698470138326884B2BFE700BF57
:101A10006D0A0008690A00082DE9F04F964683B068
:101A200006461F461EF8014B91460D460C9B0D982D
:101A30009DF83880002C00F010814FF0000C1EF84B
:101A4000014B0CF1010C002CF9D11FFA8CFC3C78F5
:101A50007A7814FB0CFC11B20FFA8CFC2CEAEC7CAB
:101A6000082800F2E580DFE800F04A5DBAD174840E
:101A70009DA405009A88B3F800A09244B3F906200B
:101A8000AAEB0C0A002A1FFA8AFA49DB5C88F1806B
:101A900004EB6204A6F804C0A6F800A0A4EB510170
:101AA0008CB274802B68DFF8D4B1DA685A454CD117
:101AB0008020504505D8DA685A4540F0D5804FF06F
:101AC0007F0A9B68A5F804A0DFF8B4A1534540F055
:101AD000C1804020A04205D82B689B68534540F048
:101AE000BE803F24EC804946CDF80080284697E828
:101AF0000C00FFF7B1FE304603B0BDE8F08FB3F93C
:101B00000420B3F800A0002AB8BF01320AEB620A31
:101B1000B3F90620AAEB6C0A002A1FFA8AFAB5DA92
:101B20000132B3E7B3F900A0B3F902402B68DFF844
:101B30004CB1DA68A6F800A01FFA8AFA5A457480F8
:101B4000A6F804C0A4B2F180B2D0284690472B6812
:101B5000AFE75C88D888B3F900A00444A6F804C0B5
:101B6000A6F800A01FFA8AFAA21AF18094B2748033
:101B700098E7B3F90400B3F800A00028B8BF01301B
:101B80000AEB600AAAEB6C0A5C881FFA8AFADB8807
:101B9000A6F804C01C44F180A6F800A0A21A94B2D2
:101BA00074807FE7B3F800A098888244AAEB0C0AFF
:101BB000EAE7B3F906205C88002AB3F900A0F180B7
:101BC000B8BF0132A6F800A0A6F804C01FFA8AFA2E
:101BD00004EB6204A4EB51018CB2748062E7B3F9A8
:101BE0000420B3F800A0002AB3F90240A6F804C00C
:101BF000B8BF01327480F180A4B20AEB620AAAEB8A
:101C00006C0C1FFA8CFAA6F800A04BE7B3F800A002
:101C10009A88B3F902409244A6F804C07480A4B232
:101C2000AAEB0C0CF1801FFA8CFAA6F800A039E799
:101C30002B680024DFF844B0DA6834805A45748099
:101C4000B480F48017D19B68DFF834A0AC80534592
:101C50003FF448AF284698473CE7A446F7E62846B5
:101C60009847013884B23DE72846904701382B68F1
:101C70001FFA80FA25E7A24667E700BF6D0A000851
:101C8000690A00082DE9F04F87B09DF84850109C74
:101C90002E4601959DF844509EB399422ED8994600
:101CA000A24228D87F29164694BF0023012308E0CA
:101CB0009CF810804EEA080E8CF810E00136B44211
:101CC00019D33F2EFAD8002BF8D14FEAD60C06F0E4
:101CD000070E4FF0010801EBCC1C08FA0EFE8444FD
:101CE000002DE5D19CF810B001362BEA0E0AB44263
:101CF0008CF810A0E5D201318945D1D207B0BDE8FA
:101D0000F08FA3EB0108B8F1000FB8BFC8F10008CD
:101D10009942C0F04E817F2B4FF0FF3A94BF0026CE
:101D200001263F2A009694BF002701270297A6B9F3
:101D30009FB9D60802F0070C012703EBC61606442C
:101D4000002D00F0948107FA0CF796F810C047EACE
:101D50000C073774002602960096994200F097818E
:101D6000464694468E46BEF17F0F16D8BCF13F0F13
:101D700013D84FEADC070CF0070B4FF001090EEB0C
:101D8000C7170744002D00F0398109FA0BF997F8BD
:101D900010B049EA0B0987F81090770018BFD644B5
:101DA000B84502DD46440CF1FF3C7345DBD162458A
:101DB000D9D100260496A4EB0209009FB9F1000FC7
:101DC000B8BFC9F100093F2C94BF00260126A242EA
:101DD000C9F100080396C0F02381002F40F0508124
:101DE000002E40F04D814FF0FF360096E60803EBE1
:101DF000C6160644002D00F01E814FF0010C04F0C1
:101E000007070CFA07F796F810C047EA0C07377473
:101E100000260396A24200F03D81C44616461F46A6
:101E200005927F2F15D83F2E13D84FEAD60E06F015
:101E3000070B4FF0010A07EBCE1E8644002D00F081
:101E4000E6800AFA0BFA9EF810B04AEA0B0A8EF8FE
:101E500010A0B8EB4C0F4FEA4C0E02DAACEB090CB9
:101E6000013FBEF1000F01D0009A1644BB42D8D109
:101E7000B442D6D1059AA1EB030EBEF1000FB8BF54
:101E8000CEF1000E7F2994BF4FF0000A4FF0010AF7
:101E900099428CBF4FF001094FF0FF39BAF1000FA2
:101EA00013D1039E8EB9E60801EBC6160644002D39
:101EB00000F0D3804FF0010C04F007070CFA07F78D
:101EC00096F810C047EA0C073774049E26BB774685
:101ED00026467F2B14D83F2E12D84FEAD60C06F098
:101EE000070B4FF0010803EBCC1C8444002D73D08A
:101EF00008FA0BF89CF810B048EA0B088CF8108030
:101F00005FEA470C18BF4B44E64501DD7744013ECC
:101F10009942DED1B442DCD1A2EB040EBEF1000F37
:101F2000B8BFCEF1000EA2428CBF4FF001084FF0B7
:101F3000FF38CEF1000CBAF1000F0ED1029B63B94D
:101F4000D30802F00707012601EBC3130344002D59
:101F50007CD0BE401F7C3E431E74019B002B7FF44F
:101F6000CDAE66460B467F2B12D83F2C10D8E70823
:101F700004F0070A4FF0010903EBC7170744A5B3A4
:101F800009FA0AF997F810A049EA0A0987F81090A7
:101F9000BCEB460F4FEA460702DAA6EB0E06013B02
:101FA00007B144449942DED1A242DCD107B0BDE87A
:101FB000F08F3F2A4FF0010A94BF002601267F2BA5
:101FC000029694BF002701270097002E7FF4C8AE29
:101FD000002F3FF4AEAEC3E608FA0BFB9CF810806E
:101FE00028EA0B088CF810808AE709FA0AFA97F8B1
:101FF000109029EA0A0987F81090C9E709FA0BFB43
:1020000097F8109029EA0B0987F81090C5E60AFAAC
:102010000BFB9EF810A02AEA0B0A8EF810A018E716
:1020200097BB8EBB01260096E60803EBC616064456
:10203000002D7FF4E2AE012704F0070C039507FAA8
:102040000CFC377C27EA0C073774E3E606FA07F73F
:102050001E7C26EA07061E747FE7012704F0070CA2
:1020600007FA0CFC377C27EA0C0737742DE707FAD0
:102070000CFC377C029527EA0C07009537746CE658
:102080004FF0FF360096C5E601260096C5E601260C
:10209000049690E601260196EDE600BF2DE9F04F8B
:1020A000DFF810B24FF4806293B000210BF1100002
:1020B00013F09AFA774B00221B68CBF80420934266
:1020C000C0F23D837449DA17744881FB0341C2EBC7
:1020D000610202EB4201013A00920AAAA3EB8103DA
:1020E00020211446069250F823306D4A204613F002
:1020F00077FB6C4B5A781D785B68059207939DF8C7
:102100002830002B6ED0069A0392203BDAB25E2A6A
:1021100068D8BBF8048008EB050EBEF1800F61DCC7
:10212000BBF80620059904920A44402A5ADC00298B
:1021300043D0059A6FF0004C049C02FB03F39C44CF
:102140001344079AA2F1020A02EB4C0C0AEB430A71
:102150003CF8026F6DB304F007030127E208414623
:102160009F4008F110037FB203EBC21200236FEA15
:1021700007095A440BE07F2904D83F2C02D8107875
:1021800038431070013301320131AB4211D006FAED
:1021900003F00004EFD47F29F4D83F2CF2D8107854
:1021A00001330132013109EA0000AB4202F8010CAF
:1021B000EDD1E24504F10104CAD1049A1FFA8EFE62
:1021C00003993F2A11F8013F28BF3F22BEF17F0F3C
:1021D000039128BF4FF07F0EABF80620ABF804E068
:1021E000002B92D13049B6EE007A4FF4A013069C32
:1021F000D1ED007A20212D4A204677EE877ACBF860
:102200000430FDEEE77A17EE903A13F0E9FA284A27
:1022100053781578059352689DF828300792002B63
:1022200000F082800394203BDAB25E2A7CD8BBF8AF
:10223000048008EB050EBEF1800F75DCBBF80620AC
:10224000059904920A44402A6EDC002956D0059A6A
:102250006FF0004C049C02FB03F39C441344079A68
:10226000A2F1020A02EB4C0C0AEB430A3CF8026FA3
:10227000002D3FD004F007030127E20841469F40AC
:1022800008F110037FB203EBC21200236FEA0709C3
:102290005A441DE01C000024ABAAAA2AD06A0108F7
:1022A000046A0108B0000024B00A00241C6A010876
:1022B000B8000024A00600247F2904D83F2C02D8AF
:1022C0001078384310700133013201319D4211D032
:1022D00006FA03F00004EFD47F29F4D83F2CF2D89B
:1022E000107801330132013109EA00009D4202F801
:1022F000010CEDD1D44504F10104B7D1049A1FFAC1
:102300008EFE03993F2A11F8013F28BF3F22BEF1FC
:102310007F0F039128BF4FF07F0EABF80620ABF87C
:1023200004E0002B7FF47FAF774BF6EE007A9FED51
:10233000777A6426D3ED006A4FF4F012744D2021B1
:10234000E6EE877A069FCBF804203846714AFDEE08
:10235000E77A17EE904A85FB0435E317C3EB651364
:1023600006FB1344009413F03BFA6B4A537815783C
:10237000059352689DF828300792002B6DD0039783
:10238000203BDAB25E2A68D8BBF8048008EB050E61
:10239000BEF1800F61DCBBF80620059904920A4467
:1023A000402A5ADC002943D0059A6FF0004C049C67
:1023B00002FB03F39C441344079AA2F1020A02EBC6
:1023C0004C0C0AEB430A3CF8026F6DB304F00703B0
:1023D0000127E20841469F4008F110037FB203EB5A
:1023E000C21200236FEA07095A440BE07F2904D880
:1023F0003F2C02D81078384310700133013201317C
:10240000AB4211D006FA03F00004EFD47F29F4D8D0
:102410003F2CF2D8107801330132013109EA000073
:10242000AB4202F8010CEDD1E24504F10104CAD13E
:10243000049A1FFA8EFE03993F2A11F8013F28BF24
:102440003F22BEF17F0F039128BF4FF07F0EABF804
:102450000620ABF804E0002B92D1304AB6EE007AA9
:102460004FF42013069CD2ED007A20212C4A2046FE
:1024700077EE877ACBF80430FDEEE77A17EE903AE4
:1024800013F0AEF9244A53781578059352689DF8F5
:1024900028300792002B7CD00394203BDAB25E2ACE
:1024A00077D8BBF8048008EB050EBEF1800F70DC16
:1024B000BBF80620059904920A44402A69DC0029E9
:1024C00052D0059A6FF0004C049C02FB03F39C442D
:1024D0001344079AA2F1020A02EB4C0C0AEB430ADE
:1024E0003CF8026F002D3BD004F007030127E208FF
:1024F00041469F4008F110037FB203EBC212002354
:102500006FEA07095A4419E0B80A00240000C842DB
:102510001F85EB512C6A0108B8000024B40A00247E
:102520003C6A01087F2904D83F2C02D81078384330
:1025300010700133013201319D4211D006FA03F0CF
:102540000004EFD47F29F4D83F2CF2D8107801335F
:102550000132013109EA00009D4202F8010CEDD17F
:10256000D44504F10104BBD1049A1FFA8EFE0399ED
:102570003F2A11F8013F28BF3F22BEF17F0F039190
:1025800028BF4FF07F0EABF80620ABF804E0002B1D
:1025900083D16E4A4FF44811069DCBF804106C4B62
:1025A000284611786B4A002908BF13466A4A202141
:1025B00013F016F9694B5A781C785B6805920693FC
:1025C0009DF82830002B6DD00395203BDAB25E2AAF
:1025D00068D8BBF8048008EB040EBEF1800F61DC04
:1025E000BBF80620059904920A44402A5ADC0029C7
:1025F00043D0059A6FF0004C049D02FB03F39C440A
:102600001344069AA2F1020A02EB4C0C0AEB430AAD
:102610003CF8026F6CB305F007030127EA08414656
:102620009F4008F110037FB203EBC21200236FEA50
:1026300007095A440BE07F2904D83F2D02D81078AF
:10264000384310700133013201319C4211D006FA37
:1026500003F00004EFD47F29F4D83F2DF2D810788E
:1026600001330132013109EA00009C4202F8010CF9
:10267000EDD1E24505F10105CAD1049A1FFA8EFE9B
:1026800003993F2A11F8013F28BF3F22BEF17F0F77
:10269000039128BF4FF07F0EABF80620ABF804E0A3
:1026A000002B92D1DFF8C0804FF0B0094FF47A765A
:1026B0000025022309AA9BF80C1010272848A8F12E
:1026C000800400968DF824508DF8259003F016F8BC
:1026D000022309AA9BF80C10214800968DF824507B
:1026E0008DF8255003F00AF8022309AA9BF80C1074
:1026F0001B4800968DF824508DF8257002F0FEFFDF
:102700004FF47A7714F8015F4026022309AA9BF858
:102710000C10134800978DF824608DF8255002F0B6
:10272000EDFF4445ECD109F1010904F180085FFA9D
:1027300089F9B9F1B80FB9D113B0BDE8F08F094AE2
:102740000AAB07CA069303C31A80D2E4CC9C0024C8
:10275000FC690108006A01084C6A0108B8000024FD
:10276000A8060024106A01082F070024F8B52A489B
:1027700002F04EF8002840D0284CD4E92B53E81A38
:102780000028014626DB51B39D4229D003EBC3014B
:10279000D4F8A4000133D4F8A87000EB0112BB42B6
:1027A0004FEA0111167A415C527AC4F8B03002D374
:1027B000DB1BC4F8B03001291BD1002ADFD0184838
:1027C000184F80F83410E81A174A00283E6011703C
:1027D0000146D8DAD4F8A81001440029D4D1F8BDB4
:1027E0000026104A1268B242CAD10F4A0321117062
:1027F000C6E70029C3D1E81AF3E70C48A0F10804A2
:1028000001F000FF201D02F007F822460849201DB4
:1028100001F0F4FFB1E700BF8C0B0024880B00240B
:10282000BC0A00241C00002494060024900B002401
:10283000850A00082DE9F04FD148AFB000F0DEFB6B
:102840000021CF480F2400F0D1FC8021CC481CADE2
:1028500000F0F4FB2046013400F0D2FB0346E4B262
:102860002846ADF81C3002220799123502F00AF80A
:10287000132CEFD10423C34D1CA9C3481A460024CE
:1028800002F014F8C04802F01FFA4FF440732846D3
:1028900010AF2B804FF47A7650F8041BB84601F045
:1028A00083FF05F1080001F0ADFE142000F0A8FB45
:1028B00003469FEDB60AA146ADF820300899B4480A
:1028C00001F0A6FE0B2000F09BFB03460C20B14D4F
:1028D000ADF82C3000F094FB3C23012210210DF1C7
:1028E000280E8DF83C300DF1580C8DF838100A94F4
:1028F000ADF82E002B73CDE90C24BEE80F000FC7F6
:102900009EE8030087E80300B8E80F00ACE80F007A
:1029100097E803008CE8030016A905F1080002F00F
:1029200057FEAE2309AA00968DF8253005F1080060
:102930000223297B8DF8244002F0E0FED52309AA6A
:10294000009605F10800297B8DF8253002238DF8CB
:10295000244002F0D3FE802309AA009605F1080066
:10296000297B8DF8253002238DF8244002F0C6FE25
:10297000A82309AA009605F10800297B8DF82530C7
:1029800002238DF8244002F0B9FE3F2309AA0096E5
:1029900005F10800297B8DF8253002238DF82440AD
:1029A00002F0ACFEDA2309AA009605F10800297BA3
:1029B0008DF8253002238DF8244002F09FFE12236B
:1029C00009AA009605F10800297B8DF8253002231D
:1029D0008DF8244002F092FED32309AA009605F157
:1029E0000800297B8DF8253002238DF8244002F061
:1029F00085FE022309AA009605F10800297B8DF8BF
:102A000024408DF8254002F079FE402309AA009663
:102A100005F10800297B8DF8253002238DF824402C
:102A200002F06CFEA62309AA009605F10800297B96
:102A30008DF8253002238DF8244002F05FFEA42398
:102A400009AA009605F10800297B8DF8253002239C
:102A50008DF8244002F052FE8D2309AA009605F15C
:102A60000800297B8DF8253002238DF8244002F0E0
:102A700045FE142309AA009605F10800297B8DF86C
:102A8000253002238DF8244002F038FEA12309AA44
:102A9000009605F10800297B8DF8253002238DF87A
:102AA000244002F02BFEC82309AA009605F1080075
:102AB000297B8DF8253002238DF8244002F01EFE7C
:102AC000812309AA009605F10800297B8DF825309D
:102AD00002238DF8244002F011FE8F2309AA0096EC
:102AE00005F10800297B8DF8253002238DF824405C
:102AF00002F004FED92309AA009605F10800297BFB
:102B00008DF8253002238DF8244002F0F7FD2523AF
:102B100009AA009605F10800297B8DF825300223CB
:102B20008DF8244002F0EAFDDB2309AA009605F1A6
:102B30000800297B8DF8253002238DF8244002F00F
:102B4000DDFD342309AA009605F10800297B8DF8E4
:102B5000253002238DF8244002F0D0FDAF2102235E
:102B600009AA00968DF8251005F10800297B8DF83B
:102B7000244002F0C3FD4FF4806221460CE000BF08
:102B8000480B0024880B0024600B00240000C8427E
:102B9000D09C0024A006002405F1100012F024FDB2
:102BA000614B6C605A781C785B68049205935F4BAC
:102BB0000293532309EB040BBBF1800F68DCEA8816
:102BC000049903920A44402A62DC002949D0049AFD
:102BD000203B6FF0004E039E02FB03F39E44134420
:102BE000059AA2F1020A02EB4E0E0AEB430A3EF8E6
:102BF000027F94B306F007034FF0010C09F11002B5
:102C000049460CFA03FCF30892B24FFA8CFC02EB33
:102C1000C31200236FEA0C082A440CE07F2905D870
:102C20003F2E03D810784CEA0000107001330132B7
:102C30000131A34211D007FA03F00004EED47F293A
:102C4000F4D83F2EF2D8107801330132013108EA6E
:102C50000000A34202F8010CEDD1D64506F10106B1
:102C6000C5D1039A1FFA8BF902993F2A11F8013F47
:102C700028BF3F22B9F17F0F029128BF4FF07F0993
:102C8000EA80A5F804901BB1A3F120025E2A91D935
:102C9000DFF8A0804FF0B0094FF47A770026297B47
:102CA000022316AA22480097A8F180048DF85860E4
:102CB0008DF8599002F022FD297B022316AA1C48A8
:102CC00000978DF858608DF8596002F017FD4FF0AD
:102CD000100C297B022316AA154800978DF858601E
:102CE0008DF859C002F00AFD4FF47A7C14F8016F98
:102CF0004027297B022316AA0D48CDF800C08DF885
:102D000058708DF8596002F0F9FC4445ECD109F196
:102D1000010904F180085FFA89F9B9F1B80FBBD154
:102D20002FB0BDE8F08F00BFB0000024586A010842
:102D3000A80600242F07002470B519484FF07E55CF
:102D40000026184C2DED028B00F074F9164A174B33
:102D5000B0EE408A164882ED000A83ED000A156144
:102D6000D660DE601D6111F0E3FEB6EE000A104889
:102D700011F0CAFF9FED0F0A0D4811F061FFB0EE90
:102D8000480A204611F0A2FD0B490C4A0C4B666123
:102D9000A160E260A5612362BDEC028B70BD00BF43
:102DA000480B0024BC0A0024380000244C000024F6
:102DB000FC0A002400007A440AD7233CCDCCCC3D49
:102DC000000048C22DE9F84F4FF000084B4C4C4D25
:102DD000FFF730FDDFF860B1FFF7AEFFDFF85CA171
:102DE000DFF85C91474E4849484800F01FF9FFF76B
:102DF000BDFC424801F026FC237933B1A37A7F2B36
:102E000003D12B7883F001032B7008F10108B8F58A
:102E1000FA6FECD3F6EE006A9BED007ADAED007AF9
:102E20003B4A37EE267AD9ED005A77EEA67A9FED27
:102E3000396ABDEEC77AFDEEE77AE5EE866A17EEEF
:102E4000101A17EE903A0531C81782FB017182FB08
:102E5000032CDB17C0EBA1013268C3EBAC03FDEE22
:102E6000E66A01EB810103EB8303B2EB410F4FEA0A
:102E700043034FEA410003D1274A12689A4228D0FF
:102E8000264A2978126807EE900AB8EEE65ADFED76
:102E9000215A4FF00008B8EEE76A07EE903A204F4B
:102EA000B8EEE77A3060C5EE257A3A601D4A1170B7
:102EB000194A13601C4BC3ED006A1C4B83ED006A7A
:102EC0001B4B83ED007A1B4BC3ED007AFFF7E6F84E
:102ED0008DE7154A16EE901A12688A42D0D10F4A31
:102EE0000F49126809688A422978CCD10D4F97F8AA
:102EF00000C08C45C7D14FF0000878E7D09C002473
:102F0000CC9C002424000024F90A0008480B00246B
:102F1000676666660000C842280000241C00002482
:102F20002C0000243000002434000024B00A0024C7
:102F3000B40A0024B80A002498060024F40A0024E5
:102F4000E09C002410B51E4800241E4A1E4904605F
:102F500044610462C46311F01DFF1C481C4B4FF414
:102F60004071184AC0F89C3040F20F73016000F1C4
:102F7000B401C0F8A03040F201134460C0F8AC4086
:102F8000C0F8B040C0E92913124911F003FF124BF9
:102F90001248134903600B4A846011F0FBFE094A92
:102FA0001049114811F0F6FE064A1049104811F078
:102FB000F1FE044A0F491048BDE8104011F0EABE86
:102FC000480B002400000024490A0008880B002454
:102FD0000080707F710A00086C6A0108A006002456
:102FE000650A0008450A0008D09C0024510A000820
:102FF000FC0A00244D0A0008BC0A0024704700BFE8
:10300000202882B009D8084B03EB400213F8103097
:10301000507843EA002002B0704701230C2043EAB5
:10302000002002B0704700BF006B0108143001F0AF
:1030300009BA00BF143001F001BA00BF38B500F181
:10304000140504462DED028B284601F0E9F92846C7
:1030500001F0F4F92846B0EE408A01F0DDF9D0ED38
:10306000007AF8EE677A88EE277ABDEC028B84ED61
:103070000E7A38BD10B540F203338EB000244FF6FF
:103080000B7240F20341ADF8083009A80123ADF8F6
:103090001020ADF824202246ADF80C1000940299BF
:1030A00007940C94CDE90544CDE90A4401F02AFFC8
:1030B00004A8012322460399009401F023FF09A8E4
:1030C00002F006F810B901200EB010BD04A801F0FE
:1030D000FFFFA0420CBF022020460EB010BD00BF73
:1030E0002DE9F04103239AB0012700240646CDE9DB
:1030F00014373B4BCDE9104340F20453CDE916475A
:10310000ADF84830FFF7B6FFB842054625D0022893
:1031100045D040F60132334B0DF12C081894ADF830
:103120002C200B981997CDF84A3000F0E3F810A93D
:1031300006F13C0003F014F8302003224FF07E53D8
:1031400041460D930E93CDE90B02F26B06F114008C
:1031500001F02AF91AB0BDE8F0811023214A06A92E
:1031600006908DF828300DF12C081F4BCDF84A2021
:1031700007930294CDE91804CDE9080402A802F0EF
:1031800027FA0823029A03A94046ADF80C508DF89F
:103190000E40049505930B9400F0ECF8C7E700206F
:1031A0000121104B0DF12C083A460094CDF84A301D
:1031B0004FF60B730C94ADF82C302346CDE9180173
:1031C00040F601314046ADF818100699CDE90D449E
:1031D00001F098FE2146404601F086FFA7E700BFB8
:1031E00004020404040604030704010B2DE9F0475C
:1031F00004462DED028B82B000294DD0012140F212
:10320000011200230091ADF804208DF80630364AF3
:103210000127364B04F10409354904F1290862609D
:1032200040F20272A36040F60663E16004F1250AF1
:10323000A4F82520A4F82930278284F8277084F880
:103240002B7003F049FB054603F0ACF969460646CE
:1032500050BB4DB304F130008DF8067003F0C4FA92
:10326000072D3CD104F114052046FFF739FF28460D
:1032700001F0E4F82846B0EE408A01F0CDF8D0ED38
:10328000007AF8EE677A88EE277A84ED0E7A02B03B
:10329000BDEC028BBDE8F08740F2011300918DF880
:1032A0000610ADF80430B2E704F1300003F09CFAE8
:1032B000072D11D04946204602F0D2FB0EB9002D51
:1032C000D0D1504601F01AFF404601F017FF04F13B
:1032D000120000F079F9C5E7002EF2D1C2E74946A5
:1032E000204602F0BDFBBDE70508050905070506F8
:1032F000050A060610B584B003460124ADF80400A3
:1033000003A8ADF80C30ADF80E4001F0F7FE2146F1
:1033100003A801F0DDFF204603F042F9002103A8D5
:1033200001F0D6FF204603F03BF9214603A801F047
:10333000CFFF04B010BD00BF10B5C2F3002384B0AE
:103340000C46017C8DF80D2043EA4402FA24022346
:103350008DF80C2003AA009402F0D0F918B10124D2
:10336000204604B010BD04460A2003F019F9204697
:1033700004B010BD034670B543F8042B044684B076
:1033800007C983E80700A37983B91A210B461E22D7
:10339000FA2523742046ADF80C20022303AA0095D9
:1033A00002F0ACF928B1012004B070BD1B210B461E
:1033B000EDE70A2003F0F4F84FF4B8520095022329
:1033C000ADF80C20204603AA217C02F097F90028D2
:1033D000E9D10A2003F0E4F841F2027200950223D9
:1033E000ADF80C20204603AA217C02F087F90028C2
:1033F000D9D10A2003F0D4F8042200950223ADF8B5
:103400000C20204603AA217C02F078F90028CAD1BA
:103410000A2003F0C5F8062200950223ADF80C201F
:10342000204603AA217C02F069F90028BBD10A20BA
:1034300003F0B6F841F2082200950223ADF80C2003
:10344000204603AA217C02F059F90028ABD10A20BA
:10345000064603F0A5F80095022303AA217C204626
:10346000ADF80C6002F04AF900289CD1304603F018
:1034700097F8009522790C232046002A8DF80C300D
:1034800003AA4FF0020314BF622142218DF80D10F0
:10349000217C02F033F9002885D1304603F080F812
:1034A0002279D4E902310B43DBB20AB943F040037D
:1034B00062790AB143F020030E22FA258DF80D300F
:1034C0002046009502238DF80C2003AA217C02F0EF
:1034D00015F900287FF467AF0A2003F061F8102285
:1034E00000950223ADF80C20204603AA217C02F0AF
:1034F00005F900287FF457AF0A2003F051F8122194
:1035000000950223ADF80C1003AA217C204602F09E
:10351000F5F800287FF447AF0A2003F041F80122B4
:1035200009212046FFF708FF003818BF01203BE7BC
:10353000F0B5102387B0234C012200250126002777
:1035400002A920460195CDE902234FF48052CDE92E
:1035500004670AF0EDF9642003F098FD02A94FF426
:1035600080522046CDE9046702261027CDE9026784
:103570000AF0DEF90322102302A92046CDE9022336
:1035800000230422CDE904234FF480520AF0D0F93D
:1035900040F23223042202A9019310232046CDE9F0
:1035A0000223019A012305924FF4805204930AF0FA
:1035B000BFF940F6060120460AF0DAF9284607B0BE
:1035C000F0BD00BFEC9C00241C4B00221C494FF0B6
:1035D000400C30B5054689B00220596007219A6039
:1035E0001A620124DA620A224FF4006EDC6006924D
:1035F0002022CDE9000104200821CDE902010320A9
:103600001021CDE9040108206946C3E904024FF402
:10361000C072181DC3E906C24FF48052C3E909E223
:103620000AF05CF938B92846FFF782FF003818BF66
:10363000012009B030BD204609B030BDE89C00240F
:1036400040410052614A0021D0B513688EB00A9102
:10365000002B40F0B9805E4B01214FF683700C24A3
:1036600011600221D3F8D4200026032742F48052AF
:10367000C3F8D420D3F8D42002F480520092009AE8
:10368000D3F8E02042F01002C3F8E020D3F8E020A5
:1036900002F010020192019AD3F8E02042F04002B9
:1036A000C3F8E020D3F8E02002F040020292029A30
:1036B000D3F8E02042F00802C3F8E020D3F8E0207D
:1036C00002F008020392039AD3F8E02042F48072D9
:1036D000C3F8E020D3F8E02002F480720492049A48
:1036E000D3F8E02042F08002C3F8E020D3F8E020D5
:1036F00002F080020592059AD3F8E02042F0200201
:10370000C3F8E020D3F8E02002F020020692069AE7
:10371000D3F8E02042F00402C3F8E020D3F8E03010
:103720000C9403F0040307930323079A0B93CDE94A
:10373000080108A9274805F02FFB48F23712022399
:1037400008A925480C94CDE90823CDE90A6705F0BE
:1037500023FB4CF20372022308A920480C94CDE904
:103760000823CDE90A6705F017FB40F2FF62022348
:1037700008A91B480C94CDE90823CDE90A6705F098
:103780000BFB4FF60C72022308A916480C94CDE9E6
:103790000823CDE90A6705F0FFFA4FF63F0202233E
:1037A00008A911480C94CDE90823CDE90A6705F072
:1037B000F3FA2022022308A90A480C94CDE90A67EB
:1037C000CDE9082305F0E8FA0EB0D0BDE49C002452
:1037D000004402580010025800180258000C025809
:1037E00000200258001C0258001402582DE9F04F26
:1037F000DFF8108406460D46144608F118002DED3A
:10380000028B89B000AF02F0A3FDD8F8183073B373
:10381000D8F81C30D8F80490002B43690BBF4FF048
:10382000080A4FF0100A4FF0020B4FF0040BB9F1E9
:10383000000F2AD0A200EA46012B02F1070222F073
:103840000702ADEB020D6846ADEB020D694600F0D4
:103850003F81022B00F0D680002B6FD02246C84754
:10386000D5462437BD46BDEC028BBDE8F08FD8F8B5
:103870001C30002BF5D0D8F804904FF0080A4FF018
:10388000020B4369B9F1000FD4D1FB61D8F80030C5
:10389000BB61002BE5D0D54802F0CCFD6B46BBF1F7
:1038A000020F786108EE103AFB6900F083816A46E6
:1038B0005146A2EBC40295466200EA46B2FBFBF217
:1038C000AAEBC40085460AEB8200EE46F861ADEB38
:1038D000010DF8690EEB820CC7F810C0EC46ADEB99
:1038E000010D00EB8201CCF80400CCF8081001EBCC
:1038F00082013869E946CCF80C1000EB8201CCF863
:1039000000A001EB8202C9E900E0C9E90212012B23
:1039100000F06483022B00F06C82002B00F08081A9
:10392000620849466046BB69984718EE103A24374A
:103930009D46BD46BDEC028BBDE8F08F002C8DD0BE
:103940001A46D8ED0C6A9FEDB27A8446331D36F9DB
:1039500022E00CF1080C07EE90EA33F922E0023283
:10396000F8EEE77A944267EE877A67EEA67A4CED36
:10397000027A07EE90EAF8EEE77A67EE877A67EE6A
:10398000A67A4CED017AE2D8F9612246C847984EF2
:10399000D8ED0D6A0020F9692B1D9FED9E7A9FEDF1
:1039A0009E6ADFED9E5A22E0F4EEC67AF1EE10FA3E
:1039B000C0F2C88447F6FE72D1ED017A45F82020A6
:1039C00066EEA77AF4EEC77AF1EE10FA40F2F080D4
:1039D000F4EEC67AF1EE10FAC0F2D58447F6FE7224
:1039E00043F820200230083184427FF639AFD1ED10
:1039F000007A66EEA77AF4EEC77AF1EE10FAD3D821
:103A00003246D9E7002C3FF429AFD8ED0C6A844642
:103A10009FED787A0022331D8E4656F822100CF165
:103A2000080C07EE901A53F822100232F8EEE77AEB
:103A3000944267EE877A67EEA67A4CED027A07EE3B
:103A4000901AF8EEE77A67EE877A67EEA67A4CED81
:103A5000017AE2D871462246C7F81CE0C847664E94
:103A6000D8ED0D6A0020F9692B1D9FED6A7A9FED54
:103A70006A6ADFF894C120E0F4EEC67AF1EE10FA3B
:103A8000C0F279843246D1ED017A45F8202066EE05
:103A9000A77AF4EEC77AF1EE10FA40F28780F4EEDE
:103AA000C67AF1EE10FAC0F25E84324643F8202066
:103AB0000230083184427FF6D3AED1ED007A66EE53
:103AC000A77AF4EEC77AF1EE10FAD5D86246DAE7B3
:103AD000002C3FF4C3AED8ED0C6A86469FED477AC2
:103AE0004FF0000C331D56F82C200EF1080E82F416
:103AF0000002A2F5000207EE902A53F82C200CF1E8
:103B0000020CF8EEE77A82F400026445A2F50002A6
:103B100067EE877A67EEA67A4EED027A07EE902A74
:103B2000F8EEE77A67EE877A67EEA67A4EED017ACD
:103B3000D9D8F9612246C847314ED8ED0D6A002028
:103B4000F9692B1D9FED337A9FED336ADFF8BCC016
:103B50001FE0F4EEC67AF1EE10FAC0F2FC833246B2
:103B6000D1ED017A45F8202066EEA77AF4EEC77A07
:103B7000F1EE10FA18D9F4EEC67AF1EE10FAC0F2AE
:103B8000DA83324643F820200230083184427FF63F
:103B900067AED1ED007A66EEA77AF4EEC77AF1EE61
:103BA00010FAD6D86246DBE76246EBE762467DE76D
:103BB000324615E7A100D6466208073121F0070119
:103BC000ADEB010DEA46ADEB010D6946ADEB0E0D17
:103BD0000AEB8200EC46ADEB0E0D01EB8202F861C0
:103BE000E946CCE900A0C9E9001290E63C9D00241A
:103BF0000280FFFF000000300082FF7F00000034E1
:103C000082FF7F00209D0024007E00807E0080FFD8
:103C10000000003804FF7FBF04FF7F3F00FEFF4627
:103C2000002C00F0C982BBF1020FD8F8242000F06C
:103C3000FA827969C7F8049002EB810E5FED0C5AA5
:103C40008A00DCF808100EF104007A611A46DCF8EC
:103C50000C303B61331DD7F810903D61FD69C7E919
:103C600002CB8C46834636F92210D8ED0C7A06EE4C
:103C7000101A33F9221006EE901A3EF92210B8EE0F
:103C8000C66A07EE101AF8EEE66A3BF92210B8EEA3
:103C9000C77A26EE256A66EEA56A27EE257A26EE15
:103CA000276A66EEA76A27EE277A07EE901A510870
:103CB0000232F8EEE77A0AEB8100944280ED006A66
:103CC00005EB810067EEA57AC0ED006A0CEB810080
:103CD00009EB810180ED007A98ED0C7A67EE877A26
:103CE000C1ED007ABFD8D7F804903D69D7E902CB7F
:103CF00060466208BB6949469847D8F82C307A6913
:103D0000D8ED0D6A1A441FED3D7A1FED3D6A2B1D5B
:103D1000904602F1040A5FED3F5A0022A84ED9E90D
:103D200000EC51E0F4EEC67AF1EE10FAC0F2C78270
:103D300047F6FE7045F822000CEB0100D0ED007A4A
:103D400066EEA77AF4EEC77AF1EE10FA4BD9F4EEEC
:103D5000C67AF1EE10FAC0F2BA8247F6FE70BBF1F5
:103D6000020F43F822002BD0D9F808000844D0ED08
:103D7000007A66EEA77AF4EEC77AF1EE10FA36D939
:103D8000F4EEC67AF1EE10FAC0F2CD8247F6FE707C
:103D900048F82200D9F80C000144D1ED007A66EE13
:103DA000A77AF4EEC77AF1EE10FA1ED9F4EEC67ACD
:103DB000F1EE10FAC0F2AF8247F6FE714AF8221017
:103DC000023294427FF6B1AD51080EEB81008900BA
:103DD000D0ED007A66EEA77AF4EEC77AF1EE10FA2B
:103DE000A0D83046A6E73046B9E73146E6E7304688
:103DF000CEE7002C00F0E081BBF1020FD8F82430B0
:103E000000F0E1817A69DCF8081003EB820EC7F854
:103E100004909300DFED6B5A0EF1040000227B61E9
:103E2000DCF80C303B61331DD7F810903D61FD6923
:103E3000C7E902CB8C46834656F82210D8ED0C7A9F
:103E400007EE101A53F82210B8EEC76A07EE101AE0
:103E50005EF82210F8EEC76A07EE101A26EE256A01
:103E60005BF82210B8EEC77A66EEA56A26EE276ADE
:103E700027EE257A66EEA76A27EE277A07EE901AD4
:103E800051080232F8EEE77A0AEB8100944280EDA5
:103E9000006A05EB810067EEA57AC0ED006A0CEBC5
:103EA000810009EB810180ED007A98ED0C7A67EED4
:103EB000877AC1ED007ABFD8D7F804903D69D7E979
:103EC00002CB60466208BB6949469847D8F82C3057
:103ED0007A69D8ED0D6A1A449FED3E7A9FED3E6AED
:103EE000131D9246DFF8E4C00022FB612B1D364E05
:103EF000D9E9008E4EE0F4EEC67AF1EE10FAC0F287
:103F0000FC81304645F822000EEB0100D0ED007A2E
:103F100066EEA77AF4EEC77AF1EE10FA49D9F4EE1C
:103F2000C67AF1EE10FAC0F2EF813046BBF1020F13
:103F300043F822002AD0D9F808000844D0ED007ACE
:103F400066EEA77AF4EEC77AF1EE10FA35D9F4EE00
:103F5000C67AF1EE10FAC0F2C98130464AF8220062
:103F6000D9F80C000144D1ED007A66EEA77AF4EEA0
:103F7000C77AF1EE10FA1ED9F4EEC67AF1EE10FA15
:103F8000C0F2AD813146F86940F822100232944205
:103F90007FF6CBAC510808EB81008900D0ED007AA8
:103FA00066EEA77AF4EEC77AF1EE10FAA3D860466F
:103FB000A8E76046BAE76146E5E76046CEE700BF9E
:103FC0000280FFFF000000300082FF7F007E008043
:103FD0000000003404FF7FBF04FF7F3F002C00F08F
:103FE000EB807A690021D8F82430C7F8109003EBF1
:103FF000820ED7F81C909300FD610EF104021FEDB4
:104000000C6A7B61331D154656F821204808D8ED0F
:104010000C6ABBF1020F82F40002A2F5000207EE67
:10402000902A53F8212082F40002B8EEE77AA2F534
:10403000000227EE067A07EE902A0AEB8002F8EEDD
:10404000E77A27EE267A67EE867A82ED007A09EB28
:1040500080024FEA800067EEA67AC2ED007A27D090
:104060005EF8212082F40002A2F5000207EE902AF9
:1040700055F8212082F40002B8EEE77AA2F500029A
:1040800027EE067A07EE902ADCF80820F8EEE77AA9
:10409000024427EE267A67EE867A82ED007A98ED62
:1040A0000C7ADCF80C2067EE877A0244C2ED007AC5
:1040B00002318C42A8D8D7F8109060466208BB69DC
:1040C0004946FD699847D8F82C307A69D8ED0D6AD1
:1040D0001A441FED407A1FED406A131D9246DFF827
:1040E000C4C20022FB612B1DAB4ED9E9008E4EE00D
:1040F000F4EEC67AF1EE10FAC0F2C580304645F80B
:1041000022000EEB0100D0ED007A66EEA77AF4EE05
:10411000C77AF1EE10FA49D9F4EEC67AF1EE10FA48
:10412000C0F2BF803046BBF1020F43F822002AD014
:10413000D9F808000844D0ED007A66EEA77AF4EECC
:10414000C77AF1EE10FA35D9F4EEC67AF1EE10FA2C
:10415000C0F2AE8030464AF82200D9F80C00014483
:10416000D1ED007A66EEA77AF4EEC77AF1EE10FA96
:104170001ED9F4EEC67AF1EE10FAC0F28B80314609
:10418000F86940F82210023294427FF6CEAB510813
:1041900008EB81008900D0ED007A66EEA77AF4EE94
:1041A000C77AF1EE10FAA3D86046A8E76046BAE7EE
:1041B0006146E5E76046CEE7224649466046BB6970
:1041C0009847FFF7B2BBC7F810B0002298ED0C6A11
:1041D000331DDFED726AD7F81CB0786956F82210EB
:1041E00007EE901A53F82210B8EEE77A07EE901A0D
:1041F00051080232F8EEE77A27EE267A0AEB810EB2
:1042000094420BEB810167EEA67A27EE067A67EE01
:10421000867A8EED007AC1ED007ADFD88300D7F878
:1042200010B07B614DE61A46C7F810B098ED0C6AE5
:10423000331DDFED5B6AD7F81CB0786936F92210C0
:1042400007EE101A33F9221007EE901AB8EEC77A6B
:1042500051080232F8EEE77A27EE267A0AEB810E51
:1042600094420BEB810167EEA67A27EE067A67EEA1
:10427000867A8EED007AC1ED007ADFD88300D7F818
:1042800010B07B6134E5F0EE675AFEEEE45A15EEAD
:10429000900A34E7F0EE675AFEEEE45A15EE901AF3
:1042A0006EE7F0EE675AFEEEE45A15EE900A3AE732
:1042B000F0EE675AFEEEE45A15EE900A4BE767EE11
:1042C000A57AFDEEE77A17EE900A00B232E567EEC6
:1042D000A57AFDEEE77A17EE900A00B23FE5F0EE20
:1042E000675AFEEEE05A15EE901A4CE6F0EE675A69
:1042F000FEEEE05A15EE900A30E6F0EE675AFEEE5A
:10430000E05A15EE900AFDE5F0EE675AFEEEE05A2F
:1043100015EE900A0AE667EEA57AFDEEE77A17EE4B
:10432000901A09B24AE567EEA57AFDEEE77A17EE34
:10433000900A00B22CE5F0EE675AFEEEE45A15EE54
:10434000902A1FE467EEA57AFDEEE77A17EE902A31
:1043500012B2FFF731BBF0EE675AFEEEE45A15EEEB
:10436000902AFFF7FDBBF0EE675AFEEEE05A15EE1D
:10437000902AFFF79BBBF0EE675AFEEEE05A15EE6F
:10438000902AFFF780BB67EEA57AFDEEE77A17EE7D
:10439000902A12B2FFF724BB82FF7F00000000309A
:1043A000000000387E0080FF30B5184C154685B0FF
:1043B000046004F1080EEC460FC98EE80F00D4ED3E
:1043C000047AF5EEC07A8CE80F00F1EE10FA1ADDEF
:1043D000B7EE006A94ED057A27EE277AC6EE276AD3
:1043E00084ED0D7AC4ED0C6A6DB1204640F8185F7B
:1043F00001F0AEFF064903690020064A2162A2626D
:10440000E36005B030BD012005B030BD209D002423
:10441000002000300000003000680830704700BF06
:10442000B1F5807F03680A4628BF4FF48072B1F56A
:10443000807F9A6094BF0020012070470068183088
:1044400001F0E6BF30B5046883B008480D46A368A4
:10445000A26A216A9B00009004F1180001F07AFF23
:104460000020C4E9000503B030BD00BFED370008EF
:1044700010B4074B4FF07E51302400220320196105
:104480009C60D8605DF8044B5961C3E9062270470F
:10449000209D002438B50446104694F89530194202
:1044A000237815D0032B19D094F89820002594F880
:1044B00096300A4025700B40A26001F0F8021B09FB
:1044C000F82A237100F08680092B73D9002038BDAB
:1044D000032BFBD8DFE803F0112A5102F7291CD087
:1044E00094F98E2094F88E30002AEFDBE218013325
:1044F0000020917384F88E3038BD94F8942094F89D
:10450000973022711940131F012B217305D994F89C
:104510008F3003F0FD03012B45D10023237018B128
:104520009022211D11F052F8012038BD94F89730E7
:1045300094F894201940131F2173012B05D994F886
:104540008F3003F0FD03012B29D1002323700028B5
:104550004CD09022211D11F039F894F894200120BC
:10456000032AB4D1237B772BB1D90922783B22715E
:1045700084F8942084F8913038BD94F8973094F8FA
:1045800094201940012A617300D181B118B19022A1
:10459000211D11F01BF800230120237038BD0223D8
:1045A00000202370DCE702230020237038BD0023A5
:1045B0002371EBE70122072B227019D101F00703C9
:1045C000A56084F88F30CBB90322184684F88E306A
:1045D000227038BD0823237194F8993000221940C5
:1045E000227084F8901000289AD19DE70120B7E747
:1045F000082BF1D0284684F8943038BD4B077FF55E
:1046000065AF8AE700220A2302700371704700BF7A
:1046100070B5044682B0C1F30726CDB2ADF80410E0
:1046200001F0BCFF4FF480724FF001232060A01D09
:10463000A571A280E671A36002B0BDE8704000F0F1
:104640005DBD00BF38B5044601F0A8FF0022236815
:104650002271834210D00122A57AE37A954020602E
:104660002271A01D6DB243B900F024FE40B2284370
:10467000C0B27F28A0720AD038BD00F01BFEB0FA8D
:1046800080F040092843C0B27F28A072F4D101F025
:1046900085FF07EE900AF8EE677AC4ED037A38BD1D
:1046A000704700BF30B5D0F80C44ADF2044D3CB3B8
:1046B000D0F80824D0F804349A4224D0EC460021E3
:1046C000E6460131D0F80834D0F804249B1AC3F32D
:1046D0000903002BF6D0D0F804345A1C0344C2F36B
:1046E00009021D79C0F80424D0F80824D0F8043455
:1046F0000EF8015B9A42E4D1D0F810246046A0473E
:104700000DF2044D30BD0021EC46F5E7F8B5254C1F
:10471000E378002B43D00B680E46002B3FD00021DE
:1047200005460F465B1A032B30D96B5C294413F006
:104730000E0F2BD003F00F03234493F818382BB33C
:10474000013B481C50FA83F0D4F80434D4F8082410
:10475000013B9B1AC3F3090313B311F801CFD4F83B
:104760000434D4F80824013B9B1AC3F30903002B3B
:10477000F5D0D4F80834814203F101022344C2F396
:10478000090283F804C0C4F80824DDD104372046A8
:10479000FFF788FF3368BFB29F423946C2D3F8BDE6
:1047A000E370F3E7589D0024CAB2114BA2F1010255
:1047B00010B5B2FA82F282B00E4C5209ADF8041074
:1047C00004600120A4F801101146187020460092E0
:1047D0000AF056FE00230A20E37001F0E1FE009A81
:1047E0002046054902B0BDE810400AF0CFBE00BF28
:1047F0009CC00024589D00240D47000803684FF01A
:10480000010CC3F80C1483F803C0C3F810247047DC
:104810000368D878704700BF0368D3F80424C3F84E
:104820000824704730B54FF44072114C114BA4F876
:10483000012004F61805104A03F1100E04F6280CA6
:10484000C4F838284FF60F02A4F83C28072284F851
:104850003E280FCB85E80F009EE80F008CE80F0084
:104860002046064A0649BDE8304010F093BA00BF22
:10487000589D0024A869010880707FF00000002482
:10488000A146000800B583B04FF0000E4FF0030CB6
:104890004274ADF80410BDF8043080F810E0A0F8C0
:1048A00002C0038003B05DF804FB00BF2DE9F04FA8
:1048B000DFF81C8300258DB0C04C037008F1400365
:1048C0004260074601920E46202229464046C4F81F
:1048D0006831C4F86481CDE90255CDE90455CDE9CC
:1048E0000655CDE90855CDE90A5510F07DFE202288
:1048F000294604F5A170C4F83151C4F83551C4F803
:104900003951C4F83D5110F06FFE019B84F84852B4
:1049100084F830317A68002A6AD02B4604F5987101
:10492000454606F1100A9E46F01856F803B0E21804
:104930000EF1010ED0F80CC0D0F80490D0F8088029
:1049400044F803B0C2F80CC04FF0000CC2F8049059
:10495000C2F80880008A25F802CB10821AF80320DA
:1049600001F8012F002A70D07A684FF0010012334D
:10497000724584F84802D7D84FF4802290489DF8B9
:10498000043008214FF000084FF00009C4F88431CA
:104990000023C4E95B020122C4F8743184F8803139
:1049A000C4E95E2194F84812C4E96489A9B3C4F843
:1049B0009821002284F8813184F888313B78C4E959
:1049C0006722002B38D0012200200121013B84F80E
:1049D000A421C4E96C01082B30D8DFE813F0BD0036
:1049E000C200C700CC00D100D600DB00E100E80027
:1049F0009DF804300121C4F87421C4F884314FF4C7
:104A0000802384F880216E4AC4E95B2308230022B6
:104A1000C4E95E130023C4E964230123002284F85F
:104A20008131002384F888310323C4F898313B781E
:104A3000C4E96722002BC6D184F8A431614802F092
:104A40005DFF034638B1FFBEFEE77A681233724558
:104A50003FF66AAF90E702A95A48029303F0ACF818
:104A60008246002876D1042240F2FF710A90CDE9F7
:104A7000081294F83021002A00F0F3804FF0060865
:104A80000AEBCA034FEACA0904EB43035B7C072B1A
:104A900007D8DFE803F0595C5653504D4A0407230A
:104AA00007930FFA8AF6D14406EBC60604EB4909D0
:104AB00004EB46077500384600F020FB99F81030EB
:104AC000042B00F3AA80022B00F3BD8000F0B98014
:104AD00004EB0A03002283F8202114F81630002B7F
:104AE00078D0022B00F08A80012B40F0B2807B78D6
:104AF000012B00F0B080002B334B18BF002305A919
:104B00003048CDE9053802F025FB002840F0AC80A4
:104B10000AF1010A94F830315FFA8AFA534540F2FB
:104B2000A0802A4B53F82A80AAE706230793B8E708
:104B300005230793B5E704230793B2E703230793FD
:104B4000AFE702230793ACE700230793A9E701230C
:104B50000793A6E7FFBEFEE703224023C4E96A23CA
:104B60006CE707226023C4E96A2367E70F228023EA
:104B7000C4E96A2362E71F22A023C4E96A235DE730
:104B80003F22C023C4E96A2358E77F22E023C4E917
:104B90006A2353E7FF224FF48073C4E96A234DE789
:104BA00040F2FF124FF49073C4E96A2346E740F2E3
:104BB000FF324FF4A073C4E96A233FE798A50024AD
:104BC0000020024004A700240002B025446B010825
:104BD000004000307B78062B37D0072B3DD0022BCE
:104BE0004AD0032B4AD0002B4CD0012B48D0042BA9
:104BF0004AD0052B254B18BF002380E77B78042B78
:104C000025D0052B2BD08BB3012B31D0022B31D0EB
:104C1000032B1F4B18BF002371E70323043504EB5C
:104C20000A0B4FF0000925448BF82031284609F182
:104C3000010900F063FA9BF8203104354B45F5DC9F
:104C40004BE70123EAE70223E8E7124B57E7124B51
:104C500055E7002353E7114B51E7114B4FE7114B39
:104C60004DE70DB0BDE8F08FFFBEFEE70E4B46E707
:104C70000E4B44E70E4B42E70E4B40E70E4B3EE730
:104C80000E4B3CE70E4B3AE70E4B38E70000B84FAF
:104C9000002090360800900C1000C0102000F01486
:104CA0008000501D000180210004002A0008302EE1
:104CB000001060320040C03A0080F03E00005247D1
:104CC000000021430000844B38B5094C40F2FF72CC
:104CD0004FF0011104F5B675284602F01BFF94F859
:104CE0003021D4F864112846BDE8384002F086BC73
:104CF00098A50024064B0F29D3F8643198BF03EB25
:104D000041031B8800EE103ABBEEC80A704700BF93
:104D100098A50024214B02689A4200D07047204A8F
:104D200000232048D2F8D81030B51F4C41F02001A4
:104D300083B0C4F8D001092004F5E875C4E975030F
:104D40004FF48060C2F8D810D2F8D8204FF4006138
:104D5000C4E9773094F8480202F02002C4F8E41164
:104D60004FF40051984201922846C4F8E811C4E972
:104D70007C33019B14BF00234FF48073C4F8EC31E3
:104D800003F040F908B1FFBEFEE704F5B673C4F8BE
:104D9000B851C4F8083203B030BD00BF0020024053
:104DA000004402584000024098A50024014803F046
:104DB000A1BC00BF68A7002402682DE9F84F4B4B47
:104DC0009A4201D0BDE8F88F494D95F84832002B42
:104DD000F8D095F83031002B77D0002405F10C097C
:104DE00005F5A17605F59877A04613E003F00101DB
:104DF00017F811BCA9F1080000F06AFABBF1010F25
:104E000025D895F83031013409F112090236A2B2E1
:104E100093422BD917F8012F002AF4D0D5F864312A
:104E20000021327833F81400D5F8683103EB04130D
:104E300023F81200338801339BB233805FFA83FA80
:104E40003A789A42D2D88A46A6F80080D0E7CAF3C8
:104E50004001A9F1040000F03BFABBF1020FCAF3D4
:104E60008001CED0484600F033FACAE7002395F817
:104E70004802204909229842C5F8D8314FF4806091
:104E8000C5F8D011C5F8D4214FF400614FF4005299
:104E9000C5F8DC3108BF4FF48073C5F8E821C5E9D7
:104EA000780100221448C5E97B32C5F8F42103F0EB
:104EB000A9F808B1FFBEFEE795F83021D5F86411D6
:104EC0000E48BDE8F84F02F099BB0A4909224FF499
:104ED0008060C5F8D831C5E974124FF400614FF411
:104EE0000052C5E97730C5E97912DAE700200240BF
:104EF00098A500244000024068A7002404A70024CD
:104F0000704700BF10B592B0ADF804100180C9B26F
:104F1000149C0B29C460C0E901233FD090F801C064
:104F2000BCF10F0F3AD8022A3FD0032A02D0012A3F
:104F300000D000220E92012B02D0022B18BF0023BA
:104F4000022C0F932CD0032C2AD0012C28D0002324
:104F50000A29109327D85C4A02EB812202610A29B0
:104F600014D8DFE801F0A39587796B5D4F413325B5
:104F70000600564BD3F8E01041F48061C3F8E0100E
:104F8000D3F8E03003F480630C930C9B01230DA94C
:104F9000104603FA0CF30D9303F0FEFE12B010BDA1
:104FA0000A291094D7D90022D8E711220E92C2E71D
:104FB000464BD3F8E01041F40071C3F8E010D3F889
:104FC000E03003F400730B930B9BDFE73F4BD3F808
:104FD000E01041F48071C3F8E010D3F8E03003F43E
:104FE00080730A930A9BD1E7384BD3F8E01041F065
:104FF0008001C3F8E010D3F8E03003F08003099398
:10500000099BC3E7314BD3F8E01041F04001C3F8EE
:10501000E010D3F8E03003F040030893089BB5E7B5
:105020002A4BD3F8E01041F02001C3F8E010D3F888
:10503000E03003F020030793079BA7E7234BD3F847
:10504000E01041F01001C3F8E010D3F8E03003F0B5
:1050500010030693069B99E71C4BD3F8E01041F030
:105060000801C3F8E010D3F8E03003F0080305931B
:10507000059B8BE7154BD3F8E01041F00401C3F812
:10508000E010D3F8E03003F004030493049B7DE7C1
:105090000E4BD3F8E01041F00201C3F8E010D3F852
:1050A000E03003F002030393039B6FE7074BD3F851
:1050B000E01041F00101C3F8E010D3F8E03003F054
:1050C00001030293029B61E700000258004402586A
:1050D00008B5012143780069994089B204F064F869
:1050E000003818BF012008BD01230A464178006935
:1050F00003FA01F189B204F05DB800BF8378022B96
:1051000030B504468FB037D0032B33D0012B31D0CC
:1051100000230A93E378012B2AD0022B28D0002306
:105120000B93002320460C9301F08EFE054620468B
:1051300001F092FE23780990082B13D8DFE803F0E2
:105140001F3245586B7E91A40500594BD3F8E020DF
:1051500042F48072C3F8E020D3F8E03003F48073A7
:105160000893089B09A9284603F016FE0FB030BD2E
:105170000B93D6E70A93CDE711230A93CAE74C4B6A
:1051800009A92846D3F8E02042F00102C3F8E02044
:10519000D3F8E03003F001030093009B03F0FCFD23
:1051A0000FB030BD424B09A92846D3F8E02042F0A9
:1051B0000202C3F8E020D3F8E03003F002030193C9
:1051C000019B03F0E9FD0FB030BD394B09A928461A
:1051D000D3F8E02042F00402C3F8E020D3F8E03036
:1051E00003F004030293029B03F0D6FD0FB030BD21
:1051F0002F4B09A92846D3F8E02042F00802C3F853
:10520000E020D3F8E03003F008030393039B03F09E
:10521000C3FD0FB030BD264B09A92846D3F8E020C6
:1052200042F01002C3F8E020D3F8E03003F010039E
:105230000493049B03F0B0FD0FB030BD1C4B09A9D3
:105240002846D3F8E02042F02002C3F8E020D3F84B
:10525000E03003F020030593059B03F09DFD0FB0A4
:1052600030BD134B09A92846D3F8E02042F0400294
:10527000C3F8E020D3F8E03003F040030693069B28
:1052800003F08AFD0FB030BD094B09A92846D3F8B9
:10529000E02042F08002C3F8E020D3F8E03003F0D1
:1052A00080030793079B03F077FD0FB030BD00BF6D
:1052B0000044025838B5054601F0C6FD04462846AC
:1052C00001F0CAFD01462046BDE8384003F06CBF3E
:1052D00070B506460D4601F0B7FD0446304601F0B4
:1052E000BBFD2A1E0146204618BF0122BDE87040C2
:1052F00003F060BF0023122270B586B0CDE902230F
:1053000004930368032B01D804230593061D841D11
:10531000304601F099FD0546304601F09DFD0346FB
:1053200001A92846019303F037FD204601F08CFDCA
:10533000034620461C4601F08FFD01A90346204686
:10534000019303F029FD06B070BD00BF634A0368F6
:10535000934210B58CB028D0614A934258D0614A2C
:10536000934200F09480604A934201D00CB010BD8B
:105370005E4C5F48D4F8E03043F00203C4F8E030FC
:10538000D4F8E03003F002030A930A9BFFF7B2FF60
:10539000D4F8F43043F08003C4F8F430D4F8F43097
:1053A00003F080030B930B9BE0E7504C5148D4F87B
:1053B000E03043F00203C4F8E030D4F8E03003F00A
:1053C00002030193019BFFF795FFD4F8E830002218
:1053D0001F2043F400131146C4F8E830D4F8E83035
:1053E00003F400130293029BD4F8D83043F0010376
:1053F000C4F8D830D4F8D83003F001030393039BEA
:1054000002F04EFC1F200CB0BDE8104002F086BC3C
:10541000364C3948D4F8E03043F08003C4F8E0302B
:10542000D4F8E03003F080030493049BD4F8E03018
:1054300043F00203C4F8E030D4F8E03003F0020394
:105440000593059BFFF756FFD4F8E8300022212092
:1054500043F480031146C4F8E830D4F8E83003F48C
:1054600080030693069BD4F8D83043F00103C4F8B8
:10547000D830D4F8D83003F001030793079B02F02B
:105480000FFC21200CB0BDE8104002F047BC1B48C7
:10549000FFF730FF154B00224820D3F8E8401146B3
:1054A00044F40004C3F8E840D3F8E84004F40004EE
:1054B0000894089CD3F8D84044F00104C3F8D840BD
:1054C000D3F8D83003F001030993099B02F0E8FBFD
:1054D00048200CB0BDE8104002F020BC0054004051
:1054E00000580040005C0040001C00580044025876
:1054F00070AA0024E8A70024C0A8002498A90024CA
:105500002DE9F0431A4B87B000254FF010099E4655
:10551000EC46184BFF22E04667461A700EF118065B
:105520000EF13004CDE90055CDE90255ADF80090FB
:10553000BCE80F00CDE90455AEE80F009CE803007D
:105540000095ADF800908EE80300B8E80F000FC694
:105550009CE803000095ADF8009086E803000FCFAB
:105560000FC49CE8030084E8030007B0BDE8F083A3
:1055700060000024E4A7002410B5EFF3108472B695
:10558000084B1A78120602D504B962B610BD1B7812
:10559000D82205485BB202FB0300143003F0AAF8DE
:1055A000F2E700BFE4A70024E8A70024014804F0C4
:1055B00099BC00BF74A80024014804F093BC00BF4C
:1055C0004CA90024014804F08DBC00BF24AA00248B
:1055D0002DE9F0430F68D8243F4D85B007FB04F454
:1055E000032F05EB0403036040DCCB680E46012B60
:1055F0003CD84DD04FF0D808B646DFF8FC9008FBF9
:105600000758BEE80F00C446ACE80F00DEF80030D3
:105610000DF1100ECCF80030D8F808C099E80F0052
:105620000EE90F000EEB8703BCF1010F53F8103C9D
:10563000C8F88C3031D0BCF1020F42D0BCF1000F61
:1056400035D0317C8C34D823002201202C4403FB3C
:1056500007534900C3E92602C3F894102046C3E962
:105660002822C3E92A2204F02FFA18B1012005B03C
:10567000BDE8F0830146204604F040FC0028F5D147
:105680000146204604F064FC003818BF0120EEE714
:105690000B7C103B672BADD9E8E701F01BF90F4BF2
:1056A00098420CBF0E4B0F4BC8F89030C9E701F081
:1056B00011F90A4B98420CBF0B4B0C4BC8F89030B9
:1056C000BFE701F007F9054B98420CBF084B094BA7
:1056D000C8F89030B5E700BFE8A70024000E270700
:1056E0002D0FB0303211D0205F4390608A62E030DD
:1056F000200BA0101A098010C86901082DE9F0419B
:10570000D0F8008082B00D4617461E4608F18C0482
:10571000204604F0EFFB2028FAD1D8F80C3073B9FA
:105720006D002046089C33463A46A9B2009404F026
:1057300021FA003818BF012002B0BDE8F081089BB3
:1057400032463946204604F0E9FAF2E7044B1022CB
:105750001A7483F8E82083F8C02183F898227047F0
:10576000E8A7002430B5002395B04FF480710622DD
:1057700004460B9306921393CDE90C13CDE90E3337
:10578000CDE9113301F0A8F807282BD004F110055A
:1057900041F2883206A9284605F02CFB28B10123E6
:1057A000184684F85C3015B030BD0222022306A9E9
:1057B0002846CDE9002310220123CDE9022300224F
:1057C0004FF48003CDE9042305224FF08073069245
:1057D0006A460F9341F2883305F078FC0028DED149
:1057E00015B030BD0323012084F85C3015B030BD06
:1057F00070B50023A4B04FF080724FF4807504465A
:10580000ADF806300D93CDE910320122CDE90E53EB
:10581000CDE91223CDE91433002943D0F02300F160
:10582000100508AEADF80630C02341F2883231468B
:105830002846089305F0DEFA28B10123184684F8BB
:105840005C3024B070BD41F288320DF1060128466B
:1058500005F03AFB03460028EFD105224FF4807192
:105860001E93284616924FF080721B9321931F922D
:1058700002AA9FED1F7BCDE91C13CDE922338DEDEC
:10588000027B9FED1D7B41F2883316A98DED047BD1
:105890009FED1B7B8DED067B05F018FC0028CCD11D
:1058A00024B070BD00F1100508AE612341F28832CA
:1058B00031462846089305F09DFA0028BDD141F2F3
:1058C00088320DF10601284605F07CFB0028B4D192
:1058D000BDF80630204623F0780343F04003ADF8CE
:1058E0000630FFF73FFF00289ED0A6E7AFF3008009
:1058F0000000000001000000100000000100000096
:1059000000000000000040002DE9F04F00234FF49C
:10591000807501264FF0807804462DED028BABB0E8
:105920008DF8073013932193299314950E96CDF893
:105930005C80CDE91533CDE91863CDE91A33CDE9A3
:105940002253CDE92433CDE9273306231C9300F0FD
:10595000C3FF072808D004F1100741F288321CA9C0
:10596000384605F047FA40B10123184684F85C3008
:105970002BB0BDEC028BBDE8F08F4FF0020A4FF068
:10598000020B4FF0050941F2883308AA1CA93846DA
:10599000CDF89480CDF870909FED2D8BCDE908ABBC
:1059A0004FF0000A4FF4800B8DED0A8BCDE90CAB64
:1059B00005F08CFB0028D7D141F2883238460EA979
:1059C00005F018FA0028CFD1402341F288320DF1BA
:1059D000070138468DF8073005F076FA0028C3D164
:1059E00041F288330EA902AA3846CDF83890CDF896
:1059F0005C809FED197B8DED048BCDE906AB8DEDC1
:105A0000027B05F063FB03460028ADD1CDF8709012
:105A10004FF00109CDF894804FF00008219308AAB7
:105A200029931CA938462295CDE92333CDE92733A4
:105A300041F288338DED0A8BCDE90CABCDE90889B5
:105A400005F044FB002893D0304684F85C608FE773
:105A500010000000010000004000000040000000B5
:105A60002DE9F043624CA3B00D46046000F034FF12
:105A7000072800F0A980286823466968AA6807C338
:105A80001E46AB8926F8043B3046257B677B05F034
:105A900093F9E0B9574B012D4FF00108E061236104
:105AA00014BF4FF480134FF40003C4E9058893FA40
:105AB000A3F3B3FA83F34FF48079013BC4F8249045
:105AC000C4E90B003046236205F00AF938B101221F
:105AD000134684F85C20184623B0BDE8F0836623A3
